{"abi":[{"type":"constructor","inputs":[{"name":"asset_","type":"address","internalType":"contract IERC20"},{"name":"name_","type":"string","internalType":"string"},{"name":"symbol_","type":"string","internalType":"string"},{"name":"basketId_","type":"string","internalType":"string"},{"name":"registry_","type":"address","internalType":"address"},{"name":"owner_","type":"address","internalType":"address"}],"stateMutability":"nonpayable"},{"type":"function","name":"acceptOwnership","inputs":[],"outputs":[],"stateMutability":"nonpayable"},{"type":"function","name":"allowance","inputs":[{"name":"owner","type":"address","internalType":"address"},{"name":"spender","type":"address","internalType":"address"}],"outputs":[{"name":"","type":"uint256","internalType":"uint256"}],"stateMutability":"view"},{"type":"function","name":"approve","inputs":[{"name":"spender","type":"address","internalType":"address"},{"name":"value","type":"uint256","internalType":"uint256"}],"outputs":[{"name":"","type":"bool","internalType":"bool"}],"stateMutability":"nonpayable"},{"type":"function","name":"asset","inputs":[],"outputs":[{"name":"","type":"address","internalType":"address"}],"stateMutability":"view"},{"type":"function","name":"balanceOf","inputs":[{"name":"account","type":"address","internalType":"address"}],"outputs":[{"name":"","type":"uint256","internalType":"uint256"}],"stateMutability":"view"},{"type":"function","name":"basketId","inputs":[],"outputs":[{"name":"","type":"string","internalType":"string"}],"stateMutability":"view"},{"type":"function","name":"convertToAssets","inputs":[{"name":"shares","type":"uint256","internalType":"uint256"}],"outputs":[{"name":"assets","type":"uint256","internalType":"uint256"}],"stateMutability":"view"},{"type":"function","name":"convertToShares","inputs":[{"name":"assets","type":"uint256","internalType":"uint256"}],"outputs":[{"name":"shares","type":"uint256","internalType":"uint256"}],"stateMutability":"view"},{"type":"function","name":"decimals","inputs":[],"outputs":[{"name":"","type":"uint8","internalType":"uint8"}],"stateMutability":"view"},{"type":"function","name":"deposit","inputs":[{"name":"assets","type":"uint256","internalType":"uint256"},{"name":"receiver","type":"address","internalType":"address"}],"outputs":[{"name":"shares","type":"uint256","internalType":"uint256"}],"stateMutability":"nonpayable"},{"type":"function","name":"getBasketId","inputs":[],"outputs":[{"name":"","type":"string","internalType":"string"}],"stateMutability":"view"},{"type":"function","name":"getRegistry","inputs":[],"outputs":[{"name":"","type":"address","internalType":"address"}],"stateMutability":"view"},{"type":"function","name":"isPaused","inputs":[],"outputs":[{"name":"","type":"bool","internalType":"bool"}],"stateMutability":"view"},{"type":"function","name":"maxDeposit","inputs":[{"name":"","type":"address","internalType":"address"}],"outputs":[{"name":"","type":"uint256","internalType":"uint256"}],"stateMutability":"view"},{"type":"function","name":"maxMint","inputs":[{"name":"","type":"address","internalType":"address"}],"outputs":[{"name":"","type":"uint256","internalType":"uint256"}],"stateMutability":"view"},{"type":"function","name":"maxRedeem","inputs":[{"name":"owner","type":"address","internalType":"address"}],"outputs":[{"name":"","type":"uint256","internalType":"uint256"}],"stateMutability":"view"},{"type":"function","name":"maxWithdraw","inputs":[{"name":"owner","type":"address","internalType":"address"}],"outputs":[{"name":"","type":"uint256","internalType":"uint256"}],"stateMutability":"view"},{"type":"function","name":"mint","inputs":[{"name":"shares","type":"uint256","internalType":"uint256"},{"name":"receiver","type":"address","internalType":"address"}],"outputs":[{"name":"assets","type":"uint256","internalType":"uint256"}],"stateMutability":"nonpayable"},{"type":"function","name":"name","inputs":[],"outputs":[{"name":"","type":"string","internalType":"string"}],"stateMutability":"view"},{"type":"function","name":"owner","inputs":[],"outputs":[{"name":"","type":"address","internalType":"address"}],"stateMutability":"view"},{"type":"function","name":"pause","inputs":[],"outputs":[],"stateMutability":"nonpayable"},{"type":"function","name":"pendingOwner","inputs":[],"outputs":[{"name":"","type":"address","internalType":"address"}],"stateMutability":"view"},{"type":"function","name":"previewDeposit","inputs":[{"name":"assets","type":"uint256","internalType":"uint256"}],"outputs":[{"name":"","type":"uint256","internalType":"uint256"}],"stateMutability":"view"},{"type":"function","name":"previewMint","inputs":[{"name":"shares","type":"uint256","internalType":"uint256"}],"outputs":[{"name":"","type":"uint256","internalType":"uint256"}],"stateMutability":"view"},{"type":"function","name":"previewRedeem","inputs":[{"name":"shares","type":"uint256","internalType":"uint256"}],"outputs":[{"name":"","type":"uint256","internalType":"uint256"}],"stateMutability":"view"},{"type":"function","name":"previewWithdraw","inputs":[{"name":"assets","type":"uint256","internalType":"uint256"}],"outputs":[{"name":"","type":"uint256","internalType":"uint256"}],"stateMutability":"view"},{"type":"function","name":"redeem","inputs":[{"name":"shares","type":"uint256","internalType":"uint256"},{"name":"receiver","type":"address","internalType":"address"},{"name":"owner","type":"address","internalType":"address"}],"outputs":[{"name":"assets","type":"uint256","internalType":"uint256"}],"stateMutability":"nonpayable"},{"type":"function","name":"registry","inputs":[],"outputs":[{"name":"","type":"address","internalType":"address"}],"stateMutability":"view"},{"type":"function","name":"renounceOwnership","inputs":[],"outputs":[],"stateMutability":"nonpayable"},{"type":"function","name":"reportRebalance","inputs":[{"name":"newTotalAssets","type":"uint256","internalType":"uint256"},{"name":"timestamp","type":"uint256","internalType":"uint256"}],"outputs":[],"stateMutability":"nonpayable"},{"type":"function","name":"symbol","inputs":[],"outputs":[{"name":"","type":"string","internalType":"string"}],"stateMutability":"view"},{"type":"function","name":"totalAssets","inputs":[],"outputs":[{"name":"","type":"uint256","internalType":"uint256"}],"stateMutability":"view"},{"type":"function","name":"totalSupply","inputs":[],"outputs":[{"name":"","type":"uint256","internalType":"uint256"}],"stateMutability":"view"},{"type":"function","name":"transfer","inputs":[{"name":"to","type":"address","internalType":"address"},{"name":"value","type":"uint256","internalType":"uint256"}],"outputs":[{"name":"","type":"bool","internalType":"bool"}],"stateMutability":"nonpayable"},{"type":"function","name":"transferFrom","inputs":[{"name":"from","type":"address","internalType":"address"},{"name":"to","type":"address","internalType":"address"},{"name":"value","type":"uint256","internalType":"uint256"}],"outputs":[{"name":"","type":"bool","internalType":"bool"}],"stateMutability":"nonpayable"},{"type":"function","name":"transferOwnership","inputs":[{"name":"newOwner","type":"address","internalType":"address"}],"outputs":[],"stateMutability":"nonpayable"},{"type":"function","name":"unpause","inputs":[],"outputs":[],"stateMutability":"nonpayable"},{"type":"function","name":"withdraw","inputs":[{"name":"assets","type":"uint256","internalType":"uint256"},{"name":"receiver","type":"address","internalType":"address"},{"name":"owner","type":"address","internalType":"address"}],"outputs":[{"name":"shares","type":"uint256","internalType":"uint256"}],"stateMutability":"nonpayable"},{"type":"event","name":"Approval","inputs":[{"name":"owner","type":"address","indexed":true,"internalType":"address"},{"name":"spender","type":"address","indexed":true,"internalType":"address"},{"name":"value","type":"uint256","indexed":false,"internalType":"uint256"}],"anonymous":false},{"type":"event","name":"Deposit","inputs":[{"name":"sender","type":"address","indexed":true,"internalType":"address"},{"name":"owner","type":"address","indexed":true,"internalType":"address"},{"name":"assets","type":"uint256","indexed":false,"internalType":"uint256"},{"name":"shares","type":"uint256","indexed":false,"internalType":"uint256"}],"anonymous":false},{"type":"event","name":"OwnershipTransferStarted","inputs":[{"name":"previousOwner","type":"address","indexed":true,"internalType":"address"},{"name":"newOwner","type":"address","indexed":true,"internalType":"address"}],"anonymous":false},{"type":"event","name":"OwnershipTransferred","inputs":[{"name":"previousOwner","type":"address","indexed":true,"internalType":"address"},{"name":"newOwner","type":"address","indexed":true,"internalType":"address"}],"anonymous":false},{"type":"event","name":"Rebalanced","inputs":[{"name":"basketId","type":"string","indexed":true,"internalType":"string"},{"name":"newTotalAssets","type":"uint256","indexed":false,"internalType":"uint256"},{"name":"timestamp","type":"uint256","indexed":false,"internalType":"uint256"}],"anonymous":false},{"type":"event","name":"Transfer","inputs":[{"name":"from","type":"address","indexed":true,"internalType":"address"},{"name":"to","type":"address","indexed":true,"internalType":"address"},{"name":"value","type":"uint256","indexed":false,"internalType":"uint256"}],"anonymous":false},{"type":"event","name":"VaultPaused","inputs":[{"name":"basketId","type":"string","indexed":true,"internalType":"string"},{"name":"by","type":"address","indexed":true,"internalType":"address"}],"anonymous":false},{"type":"event","name":"VaultUnpaused","inputs":[{"name":"basketId","type":"string","indexed":true,"internalType":"string"},{"name":"by","type":"address","indexed":true,"internalType":"address"}],"anonymous":false},{"type":"event","name":"Withdraw","inputs":[{"name":"sender","type":"address","indexed":true,"internalType":"address"},{"name":"receiver","type":"address","indexed":true,"internalType":"address"},{"name":"owner","type":"address","indexed":true,"internalType":"address"},{"name":"assets","type":"uint256","indexed":false,"internalType":"uint256"},{"name":"shares","type":"uint256","indexed":false,"internalType":"uint256"}],"anonymous":false},{"type":"error","name":"ERC20InsufficientAllowance","inputs":[{"name":"spender","type":"address","internalType":"address"},{"name":"allowance","type":"uint256","internalType":"uint256"},{"name":"needed","type":"uint256","internalType":"uint256"}]},{"type":"error","name":"ERC20InsufficientBalance","inputs":[{"name":"sender","type":"address","internalType":"address"},{"name":"balance","type":"uint256","internalType":"uint256"},{"name":"needed","type":"uint256","internalType":"uint256"}]},{"type":"error","name":"ERC20InvalidApprover","inputs":[{"name":"approver","type":"address","internalType":"address"}]},{"type":"error","name":"ERC20InvalidReceiver","inputs":[{"name":"receiver","type":"address","internalType":"address"}]},{"type":"error","name":"ERC20InvalidSender","inputs":[{"name":"sender","type":"address","internalType":"address"}]},{"type":"error","name":"ERC20InvalidSpender","inputs":[{"name":"spender","type":"address","internalType":"address"}]},{"type":"error","name":"ERC4626ExceededMaxDeposit","inputs":[{"name":"receiver","type":"address","internalType":"address"},{"name":"assets","type":"uint256","internalType":"uint256"},{"name":"max","type":"uint256","internalType":"uint256"}]},{"type":"error","name":"ERC4626ExceededMaxMint","inputs":[{"name":"receiver","type":"address","internalType":"address"},{"name":"shares","type":"uint256","internalType":"uint256"},{"name":"max","type":"uint256","internalType":"uint256"}]},{"type":"error","name":"ERC4626ExceededMaxRedeem","inputs":[{"name":"owner","type":"address","internalType":"address"},{"name":"shares","type":"uint256","internalType":"uint256"},{"name":"max","type":"uint256","internalType":"uint256"}]},{"type":"error","name":"ERC4626ExceededMaxWithdraw","inputs":[{"name":"owner","type":"address","internalType":"address"},{"name":"assets","type":"uint256","internalType":"uint256"},{"name":"max","type":"uint256","internalType":"uint256"}]},{"type":"error","name":"OwnableInvalidOwner","inputs":[{"name":"owner","type":"address","internalType":"address"}]},{"type":"error","name":"OwnableUnauthorizedAccount","inputs":[{"name":"account","type":"address","internalType":"address"}]},{"type":"error","name":"ReentrancyGuardReentrantCall","inputs":[]},{"type":"error","name":"SafeERC20FailedOperation","inputs":[{"name":"token","type":"address","internalType":"address"}]}],"bytecode":{"object":"0x60c060405234801561000f575f5ffd5b50604051613878380380613878833981810160405281019061003191906106aa565b8086868681600390816100449190610997565b5080600490816100549190610997565b5050505f5f6100688361029960201b60201c565b915091508161007857601261007a565b805b60ff1660a08160ff16815250508273ffffffffffffffffffffffffffffffffffffffff1660808173ffffffffffffffffffffffffffffffffffffffff16815250505050505f73ffffffffffffffffffffffffffffffffffffffff168173ffffffffffffffffffffffffffffffffffffffff160361012e575f6040517f1e4fbdf70000000000000000000000000000000000000000000000000000000081526004016101259190610a75565b60405180910390fd5b61013d8161036560201b60201c565b50600161015c61015161039b60201b60201c565b6103c460201b60201c565b5f01819055505f73ffffffffffffffffffffffffffffffffffffffff168273ffffffffffffffffffffffffffffffffffffffff16036101d0576040517f08c379a00000000000000000000000000000000000000000000000000000000081526004016101c790610b0e565b60405180910390fd5b5f73ffffffffffffffffffffffffffffffffffffffff168173ffffffffffffffffffffffffffffffffffffffff160361023e576040517f08c379a000000000000000000000000000000000000000000000000000000000815260040161023590610b9c565b60405180910390fd5b826007908161024d9190610997565b508160085f6101000a81548173ffffffffffffffffffffffffffffffffffffffff021916908373ffffffffffffffffffffffffffffffffffffffff160217905550505050505050610bba565b5f5f5f6102aa6103cd60201b60201c565b90505f5f6103088660405160240160405160208183030381529060405263313ce56760e01b6020820180517bffffffffffffffffffffffffffffffffffffffffffffffffffffffff83818316178352505050506103d660201b60201c565b509150915061031c836103f760201b60201c565b818015610337575060206103346103fe60201b60201c565b10155b8015610348575060ff8016815f1c11155b610353575f5f610359565b6001815f1c5b94509450505050915091565b60065f6101000a81549073ffffffffffffffffffffffffffffffffffffffff02191690556103988161040560201b60201c565b50565b5f7f9b779b17422d0df92223018b32b4d1fa46e071723d6817e2486d003becc55f005f1b905090565b5f819050919050565b5f604051905090565b5f5f5f60405f855160208701885afa92505f51915060205190509250925092565b8060405250565b5f3d905090565b5f60055f9054906101000a900473ffffffffffffffffffffffffffffffffffffffff1690508160055f6101000a81548173ffffffffffffffffffffffffffffffffffffffff021916908373ffffffffffffffffffffffffffffffffffffffff1602179055508173ffffffffffffffffffffffffffffffffffffffff168173ffffffffffffffffffffffffffffffffffffffff167f8be0079c531659141344cd1fd0a4f28419497f9722a3daafe3b4186f6b6457e060405160405180910390a35050565b5f604051905090565b5f5ffd5b5f5ffd5b5f73ffffffffffffffffffffffffffffffffffffffff82169050919050565b5f610502826104d9565b9050919050565b5f610513826104f8565b9050919050565b61052381610509565b811461052d575f5ffd5b50565b5f8151905061053e8161051a565b92915050565b5f5ffd5b5f5ffd5b5f601f19601f8301169050919050565b7f4e487b71000000000000000000000000000000000000000000000000000000005f52604160045260245ffd5b6105928261054c565b810181811067ffffffffffffffff821117156105b1576105b061055c565b5b80604052505050565b5f6105c36104c8565b90506105cf8282610589565b919050565b5f67ffffffffffffffff8211156105ee576105ed61055c565b5b6105f78261054c565b9050602081019050919050565b8281835e5f83830152505050565b5f61062461061f846105d4565b6105ba565b9050828152602081018484840111156106405761063f610548565b5b61064b848285610604565b509392505050565b5f82601f83011261066757610666610544565b5b8151610677848260208601610612565b91505092915050565b610689816104f8565b8114610693575f5ffd5b50565b5f815190506106a481610680565b92915050565b5f5f5f5f5f5f60c087890312156106c4576106c36104d1565b5b5f6106d189828a01610530565b965050602087015167ffffffffffffffff8111156106f2576106f16104d5565b5b6106fe89828a01610653565b955050604087015167ffffffffffffffff81111561071f5761071e6104d5565b5b61072b89828a01610653565b945050606087015167ffffffffffffffff81111561074c5761074b6104d5565b5b61075889828a01610653565b935050608061076989828a01610696565b92505060a061077a89828a01610696565b9150509295509295509295565b5f81519050919050565b7f4e487b71000000000000000000000000000000000000000000000000000000005f52602260045260245ffd5b5f60028204905060018216806107d557607f821691505b6020821081036107e8576107e7610791565b5b50919050565b5f819050815f5260205f209050919050565b5f6020601f8301049050919050565b5f82821b905092915050565b5f6008830261084a7fffffffffffffffffffffffffffffffffffffffffffffffffffffffffffffffff8261080f565b610854868361080f565b95508019841693508086168417925050509392505050565b5f819050919050565b5f819050919050565b5f61089861089361088e8461086c565b610875565b61086c565b9050919050565b5f819050919050565b6108b18361087e565b6108c56108bd8261089f565b84845461081b565b825550505050565b5f5f905090565b6108dc6108cd565b6108e78184846108a8565b505050565b5b8181101561090a576108ff5f826108d4565b6001810190506108ed565b5050565b601f82111561094f57610920816107ee565b61092984610800565b81016020851015610938578190505b61094c61094485610800565b8301826108ec565b50505b505050565b5f82821c905092915050565b5f61096f5f1984600802610954565b1980831691505092915050565b5f6109878383610960565b9150826002028217905092915050565b6109a082610787565b67ffffffffffffffff8111156109b9576109b861055c565b5b6109c382546107be565b6109ce82828561090e565b5f60209050601f8311600181146109ff575f84156109ed578287015190505b6109f7858261097c565b865550610a5e565b601f198416610a0d866107ee565b5f5b82811015610a3457848901518255600182019150602085019450602081019050610a0f565b86831015610a515784890151610a4d601f891682610960565b8355505b6001600288020188555050505b505050505050565b610a6f816104f8565b82525050565b5f602082019050610a885f830184610a66565b92915050565b5f82825260208201905092915050565b7f4261736b65745661756c743a2072656769737472792063616e6e6f74206265205f8201527f7a65726f00000000000000000000000000000000000000000000000000000000602082015250565b5f610af8602483610a8e565b9150610b0382610a9e565b604082019050919050565b5f6020820190508181035f830152610b2581610aec565b9050919050565b7f4261736b65745661756c743a206f776e65722063616e6e6f74206265207a65725f8201527f6f00000000000000000000000000000000000000000000000000000000000000602082015250565b5f610b86602183610a8e565b9150610b9182610b2c565b604082019050919050565b5f6020820190508181035f830152610bb381610b7a565b9050919050565b60805160a051612c9d610bdb5f395f6108d001525f6114bf0152612c9d5ff3fe608060405234801561000f575f5ffd5b5060043610610230575f3560e01c80637b1039991161012e578063ba087652116100b6578063d905777e1161007a578063d905777e146106e0578063dd62ed3e14610710578063e30c397814610740578063ef8b30f71461075e578063f2fde38b1461078e57610230565b8063ba08765214610604578063c63d75b614610634578063c6e6f59214610664578063ce96cb7714610694578063cfb933f0146106c457610230565b806395d89b41116100fd57806395d89b4114610538578063a9059cbb14610556578063b187bd2614610586578063b3d7f6b9146105a4578063b460af94146105d457610230565b80637b103999146104c25780638456cb59146104e05780638da5cb5b146104ea57806394bf804d1461050857610230565b80633f4ba83a116101bc57806362afa7721161018057806362afa772146104305780636e553f651461044e57806370a082311461047e578063715018a6146104ae57806379ba5097146104b857610230565b80633f4ba83a1461038a578063402d267d1461039457806347376d20146103c45780634cdad506146103e25780635ab1bd531461041257610230565b80630a28a477116102035780630a28a477146102d057806318160ddd1461030057806323b872dd1461031e578063313ce5671461034e57806338d52e0f1461036c57610230565b806301e1d1141461023457806306fdde031461025257806307a2d13a14610270578063095ea7b3146102a0575b5f5ffd5b61023c6107aa565b6040516102499190612340565b60405180910390f35b61025a6107b8565b60405161026791906123c9565b60405180910390f35b61028a60048036038101906102859190612417565b610848565b6040516102979190612340565b60405180910390f35b6102ba60048036038101906102b5919061249c565b610859565b6040516102c791906124f4565b60405180910390f35b6102ea60048036038101906102e59190612417565b61087b565b6040516102f79190612340565b60405180910390f35b61030861088e565b6040516103159190612340565b60405180910390f35b6103386004803603810190610333919061250d565b610897565b60405161034591906124f4565b60405180910390f35b6103566108c5565b6040516103639190612578565b60405180910390f35b6103746108fe565b60405161038191906125a0565b60405180910390f35b61039261090c565b005b6103ae60048036038101906103a991906125b9565b6109d9565b6040516103bb9190612340565b60405180910390f35b6103cc610a02565b6040516103d991906123c9565b60405180910390f35b6103fc60048036038101906103f79190612417565b610a92565b6040516104099190612340565b60405180910390f35b61041a610aa4565b60405161042791906125a0565b60405180910390f35b610438610acc565b60405161044591906123c9565b60405180910390f35b610468600480360381019061046391906125e4565b610b58565b6040516104759190612340565b60405180910390f35b610498600480360381019061049391906125b9565b610bcb565b6040516104a59190612340565b60405180910390f35b6104b6610c10565b005b6104c0610c23565b005b6104ca610cb1565b6040516104d791906125a0565b60405180910390f35b6104e8610cd6565b005b6104f2610da5565b6040516104ff91906125a0565b60405180910390f35b610522600480360381019061051d91906125e4565b610dcd565b60405161052f9190612340565b60405180910390f35b610540610e40565b60405161054d91906123c9565b60405180910390f35b610570600480360381019061056b919061249c565b610ed0565b60405161057d91906124f4565b60405180910390f35b61058e610ef2565b60405161059b91906124f4565b60405180910390f35b6105be60048036038101906105b99190612417565b610f05565b6040516105cb9190612340565b60405180910390f35b6105ee60048036038101906105e99190612622565b610f18565b6040516105fb9190612340565b60405180910390f35b61061e60048036038101906106199190612622565b610f8d565b60405161062b9190612340565b60405180910390f35b61064e600480360381019061064991906125b9565b611002565b60405161065b9190612340565b60405180910390f35b61067e60048036038101906106799190612417565b61102b565b60405161068b9190612340565b60405180910390f35b6106ae60048036038101906106a991906125b9565b61103c565b6040516106bb9190612340565b60405180910390f35b6106de60048036038101906106d99190612672565b611055565b005b6106fa60048036038101906106f591906125b9565b6110b1565b6040516107079190612340565b60405180910390f35b61072a600480360381019061072591906126b0565b6110c2565b6040516107379190612340565b60405180910390f35b610748611144565b60405161075591906125a0565b60405180910390f35b61077860048036038101906107739190612417565b61116c565b6040516107859190612340565b60405180910390f35b6107a860048036038101906107a391906125b9565b61117e565b005b5f6107b361122a565b905090565b6060600380546107c79061271b565b80601f01602080910402602001604051908101604052809291908181526020018280546107f39061271b565b801561083e5780601f106108155761010080835404028352916020019161083e565b820191905f5260205f20905b81548152906001019060200180831161082157829003601f168201915b5050505050905090565b5f610852826112af565b9050919050565b5f5f6108636112c1565b90506108708185856112c8565b600191505092915050565b5f6108878260016112da565b9050919050565b5f600254905090565b5f5f6108a16112c1565b90506108ae858285611332565b6108b98585856113c5565b60019150509392505050565b5f6108ce6114b5565b7f00000000000000000000000000000000000000000000000000000000000000006108f99190612778565b905090565b5f6109076114bc565b905090565b6109146114e3565b600860149054906101000a900460ff16610963576040517f08c379a000000000000000000000000000000000000000000000000000000000815260040161095a906127f6565b60405180910390fd5b5f600860146101000a81548160ff0219169083151502179055503373ffffffffffffffffffffffffffffffffffffffff1660076040516109a391906128b0565b60405180910390207f68419fc7aa714bcae076ea22afe29c26de02f978696a8f327d8a2c874f6b3ee360405160405180910390a3565b5f7fffffffffffffffffffffffffffffffffffffffffffffffffffffffffffffffff9050919050565b606060078054610a119061271b565b80601f0160208091040260200160405190810160405280929190818152602001828054610a3d9061271b565b8015610a885780601f10610a5f57610100808354040283529160200191610a88565b820191905f5260205f20905b815481529060010190602001808311610a6b57829003601f168201915b5050505050905090565b5f610a9d825f61156a565b9050919050565b5f60085f9054906101000a900473ffffffffffffffffffffffffffffffffffffffff16905090565b60078054610ad99061271b565b80601f0160208091040260200160405190810160405280929190818152602001828054610b059061271b565b8015610b505780601f10610b2757610100808354040283529160200191610b50565b820191905f5260205f20905b815481529060010190602001808311610b3357829003601f168201915b505050505081565b5f600860149054906101000a900460ff1615610ba9576040517f08c379a0000000000000000000000000000000000000000000000000000000008152600401610ba090612910565b60405180910390fd5b610bb16115c2565b610bbb83836115e4565b9050610bc5611664565b92915050565b5f5f5f8373ffffffffffffffffffffffffffffffffffffffff1673ffffffffffffffffffffffffffffffffffffffff1681526020019081526020015f20549050919050565b610c186114e3565b610c215f61167e565b565b5f610c2c6112c1565b90508073ffffffffffffffffffffffffffffffffffffffff16610c4d611144565b73ffffffffffffffffffffffffffffffffffffffff1614610ca557806040517f118cdaa7000000000000000000000000000000000000000000000000000000008152600401610c9c91906125a0565b60405180910390fd5b610cae8161167e565b50565b60085f9054906101000a900473ffffffffffffffffffffffffffffffffffffffff1681565b610cde6114e3565b600860149054906101000a900460ff1615610d2e576040517f08c379a0000000000000000000000000000000000000000000000000000000008152600401610d2590612978565b60405180910390fd5b6001600860146101000a81548160ff0219169083151502179055503373ffffffffffffffffffffffffffffffffffffffff166007604051610d6f91906128b0565b60405180910390207f6368d126df9b1cb7a4fea176b075af6729a2e73f12b06cfe73eab4717de7256560405160405180910390a3565b5f60055f9054906101000a900473ffffffffffffffffffffffffffffffffffffffff16905090565b5f600860149054906101000a900460ff1615610e1e576040517f08c379a0000000000000000000000000000000000000000000000000000000008152600401610e1590612910565b60405180910390fd5b610e266115c2565b610e3083836116ae565b9050610e3a611664565b92915050565b606060048054610e4f9061271b565b80601f0160208091040260200160405190810160405280929190818152602001828054610e7b9061271b565b8015610ec65780601f10610e9d57610100808354040283529160200191610ec6565b820191905f5260205f20905b815481529060010190602001808311610ea957829003601f168201915b5050505050905090565b5f5f610eda6112c1565b9050610ee78185856113c5565b600191505092915050565b600860149054906101000a900460ff1681565b5f610f1182600161156a565b9050919050565b5f600860149054906101000a900460ff1615610f69576040517f08c379a0000000000000000000000000000000000000000000000000000000008152600401610f6090612910565b60405180910390fd5b610f716115c2565b610f7c84848461172e565b9050610f86611664565b9392505050565b5f600860149054906101000a900460ff1615610fde576040517f08c379a0000000000000000000000000000000000000000000000000000000008152600401610fd590612910565b60405180910390fd5b610fe66115c2565b610ff18484846117b0565b9050610ffb611664565b9392505050565b5f7fffffffffffffffffffffffffffffffffffffffffffffffffffffffffffffffff9050919050565b5f61103582611832565b9050919050565b5f61104e611049836110b1565b610a92565b9050919050565b61105d6114e3565b600760405161106c91906128b0565b60405180910390207f9d070ea4a47306e72d560ef74d88e00de1ed9dc5d7ddaae7cad67a009538d2f983836040516110a5929190612996565b60405180910390a25050565b5f6110bb82610bcb565b9050919050565b5f60015f8473ffffffffffffffffffffffffffffffffffffffff1673ffffffffffffffffffffffffffffffffffffffff1681526020019081526020015f205f8373ffffffffffffffffffffffffffffffffffffffff1673ffffffffffffffffffffffffffffffffffffffff1681526020019081526020015f2054905092915050565b5f60065f9054906101000a900473ffffffffffffffffffffffffffffffffffffffff16905090565b5f611177825f6112da565b9050919050565b6111866114e3565b8060065f6101000a81548173ffffffffffffffffffffffffffffffffffffffff021916908373ffffffffffffffffffffffffffffffffffffffff1602179055508073ffffffffffffffffffffffffffffffffffffffff166111e5610da5565b73ffffffffffffffffffffffffffffffffffffffff167f38d16b8cac22d99fc7c124b9cd0de2d3fa1faef420bfe791d8c362d765e2270060405160405180910390a350565b5f6112336108fe565b73ffffffffffffffffffffffffffffffffffffffff166370a08231306040518263ffffffff1660e01b815260040161126b91906125a0565b602060405180830381865afa158015611286573d5f5f3e3d5ffd5b505050506040513d601f19601f820116820180604052508101906112aa91906129d1565b905090565b5f6112ba825f61156a565b9050919050565b5f33905090565b6112d58383836001611844565b505050565b5f61132a6112e66114b5565b600a6112f29190612b2b565b6112fa61088e565b6113049190612b75565b600161130e6107aa565b6113189190612b75565b8486611a13909392919063ffffffff16565b905092915050565b5f61133d84846110c2565b90507fffffffffffffffffffffffffffffffffffffffffffffffffffffffffffffffff8110156113bf57818110156113b0578281836040517ffb8f41b20000000000000000000000000000000000000000000000000000000081526004016113a793929190612ba8565b60405180910390fd5b6113be84848484035f611844565b5b50505050565b5f73ffffffffffffffffffffffffffffffffffffffff168373ffffffffffffffffffffffffffffffffffffffff1603611435575f6040517f96c6fd1e00000000000000000000000000000000000000000000000000000000815260040161142c91906125a0565b60405180910390fd5b5f73ffffffffffffffffffffffffffffffffffffffff168273ffffffffffffffffffffffffffffffffffffffff16036114a5575f6040517fec442f0500000000000000000000000000000000000000000000000000000000815260040161149c91906125a0565b60405180910390fd5b6114b0838383611a60565b505050565b5f5f905090565b5f7f0000000000000000000000000000000000000000000000000000000000000000905090565b6114eb6112c1565b73ffffffffffffffffffffffffffffffffffffffff16611509610da5565b73ffffffffffffffffffffffffffffffffffffffff16146115685761152c6112c1565b6040517f118cdaa700000000000000000000000000000000000000000000000000000000815260040161155f91906125a0565b60405180910390fd5b565b5f6115ba60016115786107aa565b6115829190612b75565b61158a6114b5565b600a6115969190612b2b565b61159e61088e565b6115a89190612b75565b8486611a13909392919063ffffffff16565b905092915050565b6115ca611c79565b60026115dc6115d7611cba565b611ce3565b5f0181905550565b5f5f6115ef836109d9565b90508084111561163a578284826040517f79012fb200000000000000000000000000000000000000000000000000000000815260040161163193929190612ba8565b60405180910390fd5b5f6116448561116c565b90506116596116516112c1565b858784611cec565b809250505092915050565b6001611676611671611cba565b611ce3565b5f0181905550565b60065f6101000a81549073ffffffffffffffffffffffffffffffffffffffff02191690556116ab81611d6d565b50565b5f5f6116b983611002565b905080841115611704578284826040517f284ff6670000000000000000000000000000000000000000000000000000000081526004016116fb93929190612ba8565b60405180910390fd5b5f61170e85610f05565b905061172361171b6112c1565b858388611cec565b809250505092915050565b5f5f6117398361103c565b905080851115611784578285826040517ffe9cceec00000000000000000000000000000000000000000000000000000000815260040161177b93929190612ba8565b60405180910390fd5b5f61178e8661087b565b90506117a461179b6112c1565b86868985611e30565b80925050509392505050565b5f5f6117bb836110b1565b905080851115611806578285826040517fb94abeec0000000000000000000000000000000000000000000000000000000081526004016117fd93929190612ba8565b60405180910390fd5b5f61181086610a92565b905061182661181d6112c1565b8686848a611e30565b80925050509392505050565b5f61183d825f6112da565b9050919050565b5f73ffffffffffffffffffffffffffffffffffffffff168473ffffffffffffffffffffffffffffffffffffffff16036118b4575f6040517fe602df050000000000000000000000000000000000000000000000000000000081526004016118ab91906125a0565b60405180910390fd5b5f73ffffffffffffffffffffffffffffffffffffffff168373ffffffffffffffffffffffffffffffffffffffff1603611924575f6040517f94280d6200000000000000000000000000000000000000000000000000000000815260040161191b91906125a0565b60405180910390fd5b8160015f8673ffffffffffffffffffffffffffffffffffffffff1673ffffffffffffffffffffffffffffffffffffffff1681526020019081526020015f205f8573ffffffffffffffffffffffffffffffffffffffff1673ffffffffffffffffffffffffffffffffffffffff1681526020019081526020015f20819055508015611a0d578273ffffffffffffffffffffffffffffffffffffffff168473ffffffffffffffffffffffffffffffffffffffff167f8c5be1e5ebec7d5bd14f71427d1e84f3dd0314c0f7b2291e5b200ac8c7c3b92584604051611a049190612340565b60405180910390a35b50505050565b5f611a41611a2083611f08565b8015611a3c57505f8480611a3757611a36612bdd565b5b868809115b611f35565b611a4c868686611f40565b611a569190612b75565b9050949350505050565b5f73ffffffffffffffffffffffffffffffffffffffff168373ffffffffffffffffffffffffffffffffffffffff1603611ab0578060025f828254611aa49190612b75565b92505081905550611b7e565b5f5f5f8573ffffffffffffffffffffffffffffffffffffffff1673ffffffffffffffffffffffffffffffffffffffff1681526020019081526020015f2054905081811015611b39578381836040517fe450d38c000000000000000000000000000000000000000000000000000000008152600401611b3093929190612ba8565b60405180910390fd5b8181035f5f8673ffffffffffffffffffffffffffffffffffffffff1673ffffffffffffffffffffffffffffffffffffffff1681526020019081526020015f2081905550505b5f73ffffffffffffffffffffffffffffffffffffffff168273ffffffffffffffffffffffffffffffffffffffff1603611bc5578060025f8282540392505081905550611c0f565b805f5f8473ffffffffffffffffffffffffffffffffffffffff1673ffffffffffffffffffffffffffffffffffffffff1681526020019081526020015f205f82825401925050819055505b8173ffffffffffffffffffffffffffffffffffffffff168373ffffffffffffffffffffffffffffffffffffffff167fddf252ad1be2c89b69c2b068fc378daa952ba7f163c4a11628f55a4df523b3ef83604051611c6c9190612340565b60405180910390a3505050565b611c8161201f565b15611cb8576040517f3ee5aeb500000000000000000000000000000000000000000000000000000000815260040160405180910390fd5b565b5f7f9b779b17422d0df92223018b32b4d1fa46e071723d6817e2486d003becc55f005f1b905090565b5f819050919050565b611cf6848361203b565b611d008382612052565b8273ffffffffffffffffffffffffffffffffffffffff168473ffffffffffffffffffffffffffffffffffffffff167fdcbc1c05240f31ff3ad067ef1ee35ce4997762752e3a095284754544f4c709d78484604051611d5f929190612996565b60405180910390a350505050565b5f60055f9054906101000a900473ffffffffffffffffffffffffffffffffffffffff1690508160055f6101000a81548173ffffffffffffffffffffffffffffffffffffffff021916908373ffffffffffffffffffffffffffffffffffffffff1602179055508173ffffffffffffffffffffffffffffffffffffffff168173ffffffffffffffffffffffffffffffffffffffff167f8be0079c531659141344cd1fd0a4f28419497f9722a3daafe3b4186f6b6457e060405160405180910390a35050565b8273ffffffffffffffffffffffffffffffffffffffff168573ffffffffffffffffffffffffffffffffffffffff1614611e6f57611e6e838683611332565b5b611e7983826120d1565b611e838483612150565b8273ffffffffffffffffffffffffffffffffffffffff168473ffffffffffffffffffffffffffffffffffffffff168673ffffffffffffffffffffffffffffffffffffffff167ffbde797d201c681b91056529119e0b02407c7bb96a4a2c75c01fc9667232c8db8585604051611ef9929190612996565b60405180910390a45050505050565b5f60016002836003811115611f2057611f1f612c0a565b5b611f2a9190612c37565b60ff16149050919050565b5f8115159050919050565b5f5f5f611f4d8686612166565b915091505f8203611f7257838181611f6857611f67612bdd565b5b0492505050612018565b818411611f9157611f90611f8b5f861460126011612183565b61219c565b5b5f8486880990508181118303925080820391505f855f038616905080860495508083049250600181825f0304019050808402831792505f600287600302189050808702600203810290508087026002038102905080870260020381029050808702600203810290508087026002038102905080870260020381029050808402955050505050505b9392505050565b5f600261203261202d611cba565b611ce3565b5f015414905090565b61204e6120466108fe565b8330846121ad565b5050565b5f73ffffffffffffffffffffffffffffffffffffffff168273ffffffffffffffffffffffffffffffffffffffff16036120c2575f6040517fec442f050000000000000000000000000000000000000000000000000000000081526004016120b991906125a0565b60405180910390fd5b6120cd5f8383611a60565b5050565b5f73ffffffffffffffffffffffffffffffffffffffff168273ffffffffffffffffffffffffffffffffffffffff1603612141575f6040517f96c6fd1e00000000000000000000000000000000000000000000000000000000815260040161213891906125a0565b60405180910390fd5b61214c825f83611a60565b5050565b61216261215b6108fe565b8383612202565b5050565b5f5f5f198385098385029150818110828203039250509250929050565b5f61218d84611f35565b82841802821890509392505050565b634e487b715f52806020526024601cfd5b6121bb848484846001612255565b6121fc57836040517f5274afe70000000000000000000000000000000000000000000000000000000081526004016121f391906125a0565b60405180910390fd5b50505050565b61220f83838360016122c6565b61225057826040517f5274afe700000000000000000000000000000000000000000000000000000000815260040161224791906125a0565b60405180910390fd5b505050565b5f5f6323b872dd60e01b9050604051815f525f1960601c87166004525f1960601c86166024528460445260205f60645f5f8c5af1925060015f511483166122b35783831516156122a7573d5f823e3d81fd5b5f883b113d1516831692505b806040525f606052505095945050505050565b5f5f63a9059cbb60e01b9050604051815f525f1960601c86166004528460245260205f60445f5f8b5af1925060015f5114831661231a57838315161561230e573d5f823e3d81fd5b5f873b113d1516831692505b806040525050949350505050565b5f819050919050565b61233a81612328565b82525050565b5f6020820190506123535f830184612331565b92915050565b5f81519050919050565b5f82825260208201905092915050565b8281835e5f83830152505050565b5f601f19601f8301169050919050565b5f61239b82612359565b6123a58185612363565b93506123b5818560208601612373565b6123be81612381565b840191505092915050565b5f6020820190508181035f8301526123e18184612391565b905092915050565b5f5ffd5b6123f681612328565b8114612400575f5ffd5b50565b5f81359050612411816123ed565b92915050565b5f6020828403121561242c5761242b6123e9565b5b5f61243984828501612403565b91505092915050565b5f73ffffffffffffffffffffffffffffffffffffffff82169050919050565b5f61246b82612442565b9050919050565b61247b81612461565b8114612485575f5ffd5b50565b5f8135905061249681612472565b92915050565b5f5f604083850312156124b2576124b16123e9565b5b5f6124bf85828601612488565b92505060206124d085828601612403565b9150509250929050565b5f8115159050919050565b6124ee816124da565b82525050565b5f6020820190506125075f8301846124e5565b92915050565b5f5f5f60608486031215612524576125236123e9565b5b5f61253186828701612488565b935050602061254286828701612488565b925050604061255386828701612403565b9150509250925092565b5f60ff82169050919050565b6125728161255d565b82525050565b5f60208201905061258b5f830184612569565b92915050565b61259a81612461565b82525050565b5f6020820190506125b35f830184612591565b92915050565b5f602082840312156125ce576125cd6123e9565b5b5f6125db84828501612488565b91505092915050565b5f5f604083850312156125fa576125f96123e9565b5b5f61260785828601612403565b925050602061261885828601612488565b9150509250929050565b5f5f5f60608486031215612639576126386123e9565b5b5f61264686828701612403565b935050602061265786828701612488565b925050604061266886828701612488565b9150509250925092565b5f5f60408385031215612688576126876123e9565b5b5f61269585828601612403565b92505060206126a685828601612403565b9150509250929050565b5f5f604083850312156126c6576126c56123e9565b5b5f6126d385828601612488565b92505060206126e485828601612488565b9150509250929050565b7f4e487b71000000000000000000000000000000000000000000000000000000005f52602260045260245ffd5b5f600282049050600182168061273257607f821691505b602082108103612745576127446126ee565b5b50919050565b7f4e487b71000000000000000000000000000000000000000000000000000000005f52601160045260245ffd5b5f6127828261255d565b915061278d8361255d565b9250828201905060ff8111156127a6576127a561274b565b5b92915050565b7f4261736b65745661756c743a206e6f74207061757365640000000000000000005f82015250565b5f6127e0601783612363565b91506127eb826127ac565b602082019050919050565b5f6020820190508181035f83015261280d816127d4565b9050919050565b5f81905092915050565b5f819050815f5260205f209050919050565b5f815461283c8161271b565b6128468186612814565b9450600182165f81146128605760018114612875576128a7565b60ff19831686528115158202860193506128a7565b61287e8561281e565b5f5b8381101561289f57815481890152600182019150602081019050612880565b838801955050505b50505092915050565b5f6128bb8284612830565b915081905092915050565b7f4261736b65745661756c743a20706175736564000000000000000000000000005f82015250565b5f6128fa601383612363565b9150612905826128c6565b602082019050919050565b5f6020820190508181035f830152612927816128ee565b9050919050565b7f4261736b65745661756c743a20616c72656164792070617573656400000000005f82015250565b5f612962601b83612363565b915061296d8261292e565b602082019050919050565b5f6020820190508181035f83015261298f81612956565b9050919050565b5f6040820190506129a95f830185612331565b6129b66020830184612331565b9392505050565b5f815190506129cb816123ed565b92915050565b5f602082840312156129e6576129e56123e9565b5b5f6129f3848285016129bd565b91505092915050565b5f8160011c9050919050565b5f5f8291508390505b6001851115612a5157808604811115612a2d57612a2c61274b565b5b6001851615612a3c5780820291505b8081029050612a4a856129fc565b9450612a11565b94509492505050565b5f82612a695760019050612b24565b81612a76575f9050612b24565b8160018114612a8c5760028114612a9657612ac5565b6001915050612b24565b60ff841115612aa857612aa761274b565b5b8360020a915084821115612abf57612abe61274b565b5b50612b24565b5060208310610133831016604e8410600b8410161715612afa5782820a905083811115612af557612af461274b565b5b612b24565b612b078484846001612a08565b92509050818404811115612b1e57612b1d61274b565b5b81810290505b9392505050565b5f612b3582612328565b9150612b408361255d565b9250612b6d7fffffffffffffffffffffffffffffffffffffffffffffffffffffffffffffffff8484612a5a565b905092915050565b5f612b7f82612328565b9150612b8a83612328565b9250828201905080821115612ba257612ba161274b565b5b92915050565b5f606082019050612bbb5f830186612591565b612bc86020830185612331565b612bd56040830184612331565b949350505050565b7f4e487b71000000000000000000000000000000000000000000000000000000005f52601260045260245ffd5b7f4e487b71000000000000000000000000000000000000000000000000000000005f52602160045260245ffd5b5f612c418261255d565b9150612c4c8361255d565b925082612c5c57612c5b612bdd565b5b82820690509291505056fea264697066735822122018843bb2ce3fc188a3d696ea7faa52bd21c914bb439ff1bd277ead1eae7ca03f64736f6c634300081e0033","linkReferences":{}},"methodIdentifiers":{"acceptOwnership()":"79ba5097","allowance(address,address)":"dd62ed3e","approve(address,uint256)":"095ea7b3","asset()":"38d52e0f","balanceOf(address)":"70a08231","basketId()":"62afa772","convertToAssets(uint256)":"07a2d13a","convertToShares(uint256)":"c6e6f592","decimals()":"313ce567","deposit(uint256,address)":"6e553f65","getBasketId()":"47376d20","getRegistry()":"5ab1bd53","isPaused()":"b187bd26","maxDeposit(address)":"402d267d","maxMint(address)":"c63d75b6","maxRedeem(address)":"d905777e","maxWithdraw(address)":"ce96cb77","mint(uint256,address)":"94bf804d","name()":"06fdde03","owner()":"8da5cb5b","pause()":"8456cb59","pendingOwner()":"e30c3978","previewDeposit(uint256)":"ef8b30f7","previewMint(uint256)":"b3d7f6b9","previewRedeem(uint256)":"4cdad506","previewWithdraw(uint256)":"0a28a477","redeem(uint256,address,address)":"ba087652","registry()":"7b103999","renounceOwnership()":"715018a6","reportRebalance(uint256,uint256)":"cfb933f0","symbol()":"95d89b41","totalAssets()":"01e1d114","totalSupply()":"18160ddd","transfer(address,uint256)":"a9059cbb","transferFrom(address,address,uint256)":"23b872dd","transferOwnership(address)":"f2fde38b","unpause()":"3f4ba83a","withdraw(uint256,address,address)":"b460af94"},"id":3}