{"abi":[{"type":"constructor","inputs":[{"name":"owner_","type":"address","internalType":"address"}],"stateMutability":"nonpayable"},{"type":"function","name":"acceptOwnership","inputs":[],"outputs":[],"stateMutability":"nonpayable"},{"type":"function","name":"getBasketAtIndex","inputs":[{"name":"index","type":"uint256","internalType":"uint256"}],"outputs":[{"name":"","type":"tuple","internalType":"struct IBasketRegistry.BasketInfo","components":[{"name":"basketId","type":"string","internalType":"string"},{"name":"vault","type":"address","internalType":"address"},{"name":"tokens","type":"address[]","internalType":"address[]"},{"name":"targetWeightsBps","type":"uint256[]","internalType":"uint256[]"},{"name":"active","type":"bool","internalType":"bool"},{"name":"category","type":"uint8","internalType":"uint8"}]}],"stateMutability":"view"},{"type":"function","name":"getBasketById","inputs":[{"name":"basketId","type":"string","internalType":"string"}],"outputs":[{"name":"","type":"tuple","internalType":"struct IBasketRegistry.BasketInfo","components":[{"name":"basketId","type":"string","internalType":"string"},{"name":"vault","type":"address","internalType":"address"},{"name":"tokens","type":"address[]","internalType":"address[]"},{"name":"targetWeightsBps","type":"uint256[]","internalType":"uint256[]"},{"name":"active","type":"bool","internalType":"bool"},{"name":"category","type":"uint8","internalType":"uint8"}]}],"stateMutability":"view"},{"type":"function","name":"getBasketCount","inputs":[],"outputs":[{"name":"","type":"uint256","internalType":"uint256"}],"stateMutability":"view"},{"type":"function","name":"getVault","inputs":[{"name":"basketId","type":"string","internalType":"string"}],"outputs":[{"name":"","type":"address","internalType":"address"}],"stateMutability":"view"},{"type":"function","name":"isBasketActive","inputs":[{"name":"basketId","type":"string","internalType":"string"}],"outputs":[{"name":"","type":"bool","internalType":"bool"}],"stateMutability":"view"},{"type":"function","name":"owner","inputs":[],"outputs":[{"name":"","type":"address","internalType":"address"}],"stateMutability":"view"},{"type":"function","name":"pendingOwner","inputs":[],"outputs":[{"name":"","type":"address","internalType":"address"}],"stateMutability":"view"},{"type":"function","name":"registerBasket","inputs":[{"name":"basketId_","type":"string","internalType":"string"},{"name":"vault","type":"address","internalType":"address"},{"name":"tokens","type":"address[]","internalType":"address[]"},{"name":"targetWeightsBps","type":"uint256[]","internalType":"uint256[]"},{"name":"category","type":"uint8","internalType":"uint8"}],"outputs":[],"stateMutability":"nonpayable"},{"type":"function","name":"renounceOwnership","inputs":[],"outputs":[],"stateMutability":"nonpayable"},{"type":"function","name":"setBasketActive","inputs":[{"name":"basketId_","type":"string","internalType":"string"},{"name":"active","type":"bool","internalType":"bool"}],"outputs":[],"stateMutability":"nonpayable"},{"type":"function","name":"transferOwnership","inputs":[{"name":"newOwner","type":"address","internalType":"address"}],"outputs":[],"stateMutability":"nonpayable"},{"type":"function","name":"updateBasketTargets","inputs":[{"name":"basketId_","type":"string","internalType":"string"},{"name":"tokens","type":"address[]","internalType":"address[]"},{"name":"targetWeightsBps","type":"uint256[]","internalType":"uint256[]"}],"outputs":[],"stateMutability":"nonpayable"},{"type":"event","name":"BasketRegistered","inputs":[{"name":"basketId","type":"string","indexed":true,"internalType":"string"},{"name":"vault","type":"address","indexed":true,"internalType":"address"}],"anonymous":false},{"type":"event","name":"BasketStatusUpdated","inputs":[{"name":"basketId","type":"string","indexed":true,"internalType":"string"},{"name":"active","type":"bool","indexed":false,"internalType":"bool"}],"anonymous":false},{"type":"event","name":"BasketTargetsUpdated","inputs":[{"name":"basketId","type":"string","indexed":true,"internalType":"string"},{"name":"tokens","type":"address[]","indexed":false,"internalType":"address[]"},{"name":"targetWeightsBps","type":"uint256[]","indexed":false,"internalType":"uint256[]"}],"anonymous":false},{"type":"event","name":"OwnershipTransferStarted","inputs":[{"name":"previousOwner","type":"address","indexed":true,"internalType":"address"},{"name":"newOwner","type":"address","indexed":true,"internalType":"address"}],"anonymous":false},{"type":"event","name":"OwnershipTransferred","inputs":[{"name":"previousOwner","type":"address","indexed":true,"internalType":"address"},{"name":"newOwner","type":"address","indexed":true,"internalType":"address"}],"anonymous":false},{"type":"error","name":"OwnableInvalidOwner","inputs":[{"name":"owner","type":"address","internalType":"address"}]},{"type":"error","name":"OwnableUnauthorizedAccount","inputs":[{"name":"account","type":"address","internalType":"address"}]}],"bytecode":{"object":"0x608060405234801561000f575f5ffd5b506040516131693803806131698339818101604052810190610031919061027b565b805f73ffffffffffffffffffffffffffffffffffffffff168173ffffffffffffffffffffffffffffffffffffffff16036100a2575f6040517f1e4fbdf700000000000000000000000000000000000000000000000000000000815260040161009991906102b5565b60405180910390fd5b6100b18161012660201b60201c565b505f73ffffffffffffffffffffffffffffffffffffffff168173ffffffffffffffffffffffffffffffffffffffff1603610120576040517f08c379a00000000000000000000000000000000000000000000000000000000081526004016101179061034e565b60405180910390fd5b5061036c565b60015f6101000a81549073ffffffffffffffffffffffffffffffffffffffff02191690556101598161015c60201b60201c565b50565b5f5f5f9054906101000a900473ffffffffffffffffffffffffffffffffffffffff169050815f5f6101000a81548173ffffffffffffffffffffffffffffffffffffffff021916908373ffffffffffffffffffffffffffffffffffffffff1602179055508173ffffffffffffffffffffffffffffffffffffffff168173ffffffffffffffffffffffffffffffffffffffff167f8be0079c531659141344cd1fd0a4f28419497f9722a3daafe3b4186f6b6457e060405160405180910390a35050565b5f5ffd5b5f73ffffffffffffffffffffffffffffffffffffffff82169050919050565b5f61024a82610221565b9050919050565b61025a81610240565b8114610264575f5ffd5b50565b5f8151905061027581610251565b92915050565b5f602082840312156102905761028f61021d565b5b5f61029d84828501610267565b91505092915050565b6102af81610240565b82525050565b5f6020820190506102c85f8301846102a6565b92915050565b5f82825260208201905092915050565b7f4261736b657452656769737472793a206f776e65722063616e6e6f74206265205f8201527f7a65726f00000000000000000000000000000000000000000000000000000000602082015250565b5f6103386024836102ce565b9150610343826102de565b604082019050919050565b5f6020820190508181035f8301526103658161032c565b9050919050565b612df0806103795f395ff3fe608060405234801561000f575f5ffd5b50600436106100cd575f3560e01c80638da5cb5b1161008a578063e30c397811610064578063e30c3978146101d5578063f2fde38b146101f3578063f722125c1461020f578063ffc71d671461023f576100cd565b80638da5cb5b1461016b578063abda2e3f14610189578063b86839f6146101b9576100cd565b8063391623f2146100d157806345947bec146100ed578063715018a61461011d57806379ba5097146101275780637fcc21371461013157806381538f151461014d575b5f5ffd5b6100eb60048036038101906100e69190611bde565b61026f565b005b61010760048036038101906101029190611c3b565b6103f1565b6040516101149190611cc5565b60405180910390f35b61012561069c565b005b61012f6106af565b005b61014b60048036038101906101469190611d88565b61073d565b005b61015561099a565b6040516101629190611e50565b60405180910390f35b6101736109a6565b6040516101809190611cc5565b60405180910390f35b6101a3600480360381019061019e9190611c3b565b6109cd565b6040516101b09190611e78565b60405180910390f35b6101d360048036038101906101ce9190611ef1565b610c78565b005b6101dd611186565b6040516101ea9190611cc5565b60405180910390f35b61020d60048036038101906102089190611fc8565b6111ae565b005b6102296004803603810190610224919061201d565b61125a565b60405161023691906122d8565b60405180910390f35b61025960048036038101906102549190611c3b565b6114f0565b60405161026691906122d8565b60405180910390f35b61027761179e565b5f6002848460405161028a929190612334565b908152602001604051809103902090505f73ffffffffffffffffffffffffffffffffffffffff16816001015f9054906101000a900473ffffffffffffffffffffffffffffffffffffffff1673ffffffffffffffffffffffffffffffffffffffff160361032b576040517f08c379a0000000000000000000000000000000000000000000000000000000008152600401610322906123a6565b60405180910390fd5b811515816004015f9054906101000a900460ff16151503610381576040517f08c379a00000000000000000000000000000000000000000000000000000000081526004016103789061240e565b60405180910390fd5b81816004015f6101000a81548160ff02191690831515021790555083836040516103ac929190612334565b60405180910390207fe4fdc6e33b127a87bc149b8ebed3b03228c474427f7ef3ab660692f9a54e5130836040516103e39190611e78565b60405180910390a250505050565b5f5f60028484604051610405929190612334565b90815260200160405180910390206040518060c00160405290815f8201805461042d90612459565b80601f016020809104026020016040519081016040528092919081815260200182805461045990612459565b80156104a45780601f1061047b576101008083540402835291602001916104a4565b820191905f5260205f20905b81548152906001019060200180831161048757829003601f168201915b50505050508152602001600182015f9054906101000a900473ffffffffffffffffffffffffffffffffffffffff1673ffffffffffffffffffffffffffffffffffffffff1673ffffffffffffffffffffffffffffffffffffffff1681526020016002820180548060200260200160405190810160405280929190818152602001828054801561058457602002820191905f5260205f20905b815f9054906101000a900473ffffffffffffffffffffffffffffffffffffffff1673ffffffffffffffffffffffffffffffffffffffff168152602001906001019080831161053b575b50505050508152602001600382018054806020026020016040519081016040528092919081815260200182805480156105da57602002820191905f5260205f20905b8154815260200190600101908083116105c6575b50505050508152602001600482015f9054906101000a900460ff161515151581526020016004820160019054906101000a900460ff1660ff1660ff168152505090505f73ffffffffffffffffffffffffffffffffffffffff16816020015173ffffffffffffffffffffffffffffffffffffffff160361068e576040517f08c379a0000000000000000000000000000000000000000000000000000000008152600401610685906123a6565b60405180910390fd5b806020015191505092915050565b6106a461179e565b6106ad5f611825565b565b5f6106b8611855565b90508073ffffffffffffffffffffffffffffffffffffffff166106d9611186565b73ffffffffffffffffffffffffffffffffffffffff161461073157806040517f118cdaa70000000000000000000000000000000000000000000000000000000081526004016107289190611cc5565b60405180910390fd5b61073a81611825565b50565b61074561179e565b5f60028787604051610758929190612334565b908152602001604051809103902090505f73ffffffffffffffffffffffffffffffffffffffff16816001015f9054906101000a900473ffffffffffffffffffffffffffffffffffffffff1673ffffffffffffffffffffffffffffffffffffffff16036107f9576040517f08c379a00000000000000000000000000000000000000000000000000000000081526004016107f0906123a6565b60405180910390fd5b5f858590501161083e576040517f08c379a0000000000000000000000000000000000000000000000000000000008152600401610835906124f9565b60405180910390fd5b828290508585905014610886576040517f08c379a000000000000000000000000000000000000000000000000000000000815260040161087d90612587565b60405180910390fd5b5f5f90505f5f90505b848490508110156108ce578484828181106108ad576108ac6125a5565b5b90506020020135826108bf91906125ff565b9150808060010191505061088f565b506127108114610913576040517f08c379a000000000000000000000000000000000000000000000000000000000815260040161090a906126a2565b60405180910390fd5b858583600201919061092692919061191d565b50838383600301919061093a9291906119ba565b50878760405161094b929190612334565b60405180910390207f9dad870e5c343216309b17175919086ce75c6b5f0fc031fe1b2d6d1d1a4fa9248787878760405161098894939291906127ce565b60405180910390a25050505050505050565b5f600380549050905090565b5f5f5f9054906101000a900473ffffffffffffffffffffffffffffffffffffffff16905090565b5f5f600284846040516109e1929190612334565b90815260200160405180910390206040518060c00160405290815f82018054610a0990612459565b80601f0160208091040260200160405190810160405280929190818152602001828054610a3590612459565b8015610a805780601f10610a5757610100808354040283529160200191610a80565b820191905f5260205f20905b815481529060010190602001808311610a6357829003601f168201915b50505050508152602001600182015f9054906101000a900473ffffffffffffffffffffffffffffffffffffffff1673ffffffffffffffffffffffffffffffffffffffff1673ffffffffffffffffffffffffffffffffffffffff16815260200160028201805480602002602001604051908101604052809291908181526020018280548015610b6057602002820191905f5260205f20905b815f9054906101000a900473ffffffffffffffffffffffffffffffffffffffff1673ffffffffffffffffffffffffffffffffffffffff1681526020019060010190808311610b17575b5050505050815260200160038201805480602002602001604051908101604052809291908181526020018280548015610bb657602002820191905f5260205f20905b815481526020019060010190808311610ba2575b50505050508152602001600482015f9054906101000a900460ff161515151581526020016004820160019054906101000a900460ff1660ff1660ff168152505090505f73ffffffffffffffffffffffffffffffffffffffff16816020015173ffffffffffffffffffffffffffffffffffffffff1603610c6a576040517f08c379a0000000000000000000000000000000000000000000000000000000008152600401610c61906123a6565b60405180910390fd5b806080015191505092915050565b610c8061179e565b5f73ffffffffffffffffffffffffffffffffffffffff168673ffffffffffffffffffffffffffffffffffffffff1603610cee576040517f08c379a0000000000000000000000000000000000000000000000000000000008152600401610ce590612877565b60405180910390fd5b5f73ffffffffffffffffffffffffffffffffffffffff1660028989604051610d17929190612334565b90815260200160405180910390206001015f9054906101000a900473ffffffffffffffffffffffffffffffffffffffff1673ffffffffffffffffffffffffffffffffffffffff1614610d9e576040517f08c379a0000000000000000000000000000000000000000000000000000000008152600401610d9590612905565b60405180910390fd5b5f8585905011610de3576040517f08c379a0000000000000000000000000000000000000000000000000000000008152600401610dda906124f9565b60405180910390fd5b828290508585905014610e2b576040517f08c379a0000000000000000000000000000000000000000000000000000000008152600401610e2290612587565b60405180910390fd5b5f5f90505f5f90505b84849050811015610e7357848482818110610e5257610e516125a5565b5b9050602002013582610e6491906125ff565b91508080600101915050610e34565b506127108114610eb8576040517f08c379a0000000000000000000000000000000000000000000000000000000008152600401610eaf906126a2565b60405180910390fd5b6040518060c001604052808a8a8080601f0160208091040260200160405190810160405280939291908181526020018383808284375f81840152601f19601f8201169050808301925050505050505081526020018873ffffffffffffffffffffffffffffffffffffffff1681526020018787808060200260200160405190810160405280939291908181526020018383602002808284375f81840152601f19601f8201169050808301925050505050505081526020018585808060200260200160405190810160405280939291908181526020018383602002808284375f81840152601f19601f8201169050808301925050505050505081526020016001151581526020018360ff1681525060028a8a604051610fd6929190612334565b90815260200160405180910390205f820151815f019081610ff79190612af0565b506020820151816001015f6101000a81548173ffffffffffffffffffffffffffffffffffffffff021916908373ffffffffffffffffffffffffffffffffffffffff160217905550604082015181600201908051906020019061105a929190611a05565b506060820151816003019080519060200190611077929190611a8c565b506080820151816004015f6101000a81548160ff02191690831515021790555060a08201518160040160016101000a81548160ff021916908360ff16021790555090505060038054905060048a8a6040516110d3929190612334565b9081526020016040518091039020819055506003898990918060018154018082558091505060019003905f5260205f20015f90919290919290919290919250918261111f929190612bc9565b508673ffffffffffffffffffffffffffffffffffffffff168989604051611147929190612334565b60405180910390207f6eeb4ff888adda6f07ac353235f85205e087ccbc26e115ac3f0a7fe6518e6abc60405160405180910390a3505050505050505050565b5f60015f9054906101000a900473ffffffffffffffffffffffffffffffffffffffff16905090565b6111b661179e565b8060015f6101000a81548173ffffffffffffffffffffffffffffffffffffffff021916908373ffffffffffffffffffffffffffffffffffffffff1602179055508073ffffffffffffffffffffffffffffffffffffffff166112156109a6565b73ffffffffffffffffffffffffffffffffffffffff167f38d16b8cac22d99fc7c124b9cd0de2d3fa1faef420bfe791d8c362d765e2270060405160405180910390a350565b611262611ad7565b60038054905082106112a9576040517f08c379a00000000000000000000000000000000000000000000000000000000081526004016112a090612d06565b60405180910390fd5b6002600383815481106112bf576112be6125a5565b5b905f5260205f20016040516112d49190612da4565b90815260200160405180910390206040518060c00160405290815f820180546112fc90612459565b80601f016020809104026020016040519081016040528092919081815260200182805461132890612459565b80156113735780601f1061134a57610100808354040283529160200191611373565b820191905f5260205f20905b81548152906001019060200180831161135657829003601f168201915b50505050508152602001600182015f9054906101000a900473ffffffffffffffffffffffffffffffffffffffff1673ffffffffffffffffffffffffffffffffffffffff1673ffffffffffffffffffffffffffffffffffffffff1681526020016002820180548060200260200160405190810160405280929190818152602001828054801561145357602002820191905f5260205f20905b815f9054906101000a900473ffffffffffffffffffffffffffffffffffffffff1673ffffffffffffffffffffffffffffffffffffffff168152602001906001019080831161140a575b50505050508152602001600382018054806020026020016040519081016040528092919081815260200182805480156114a957602002820191905f5260205f20905b815481526020019060010190808311611495575b50505050508152602001600482015f9054906101000a900460ff161515151581526020016004820160019054906101000a900460ff1660ff1660ff16815250509050919050565b6114f8611ad7565b5f6002848460405161150b929190612334565b90815260200160405180910390206040518060c00160405290815f8201805461153390612459565b80601f016020809104026020016040519081016040528092919081815260200182805461155f90612459565b80156115aa5780601f10611581576101008083540402835291602001916115aa565b820191905f5260205f20905b81548152906001019060200180831161158d57829003601f168201915b50505050508152602001600182015f9054906101000a900473ffffffffffffffffffffffffffffffffffffffff1673ffffffffffffffffffffffffffffffffffffffff1673ffffffffffffffffffffffffffffffffffffffff1681526020016002820180548060200260200160405190810160405280929190818152602001828054801561168a57602002820191905f5260205f20905b815f9054906101000a900473ffffffffffffffffffffffffffffffffffffffff1673ffffffffffffffffffffffffffffffffffffffff1681526020019060010190808311611641575b50505050508152602001600382018054806020026020016040519081016040528092919081815260200182805480156116e057602002820191905f5260205f20905b8154815260200190600101908083116116cc575b50505050508152602001600482015f9054906101000a900460ff161515151581526020016004820160019054906101000a900460ff1660ff1660ff168152505090505f73ffffffffffffffffffffffffffffffffffffffff16816020015173ffffffffffffffffffffffffffffffffffffffff1603611794576040517f08c379a000000000000000000000000000000000000000000000000000000000815260040161178b906123a6565b60405180910390fd5b8091505092915050565b6117a6611855565b73ffffffffffffffffffffffffffffffffffffffff166117c46109a6565b73ffffffffffffffffffffffffffffffffffffffff1614611823576117e7611855565b6040517f118cdaa700000000000000000000000000000000000000000000000000000000815260040161181a9190611cc5565b60405180910390fd5b565b60015f6101000a81549073ffffffffffffffffffffffffffffffffffffffff02191690556118528161185c565b50565b5f33905090565b5f5f5f9054906101000a900473ffffffffffffffffffffffffffffffffffffffff169050815f5f6101000a81548173ffffffffffffffffffffffffffffffffffffffff021916908373ffffffffffffffffffffffffffffffffffffffff1602179055508173ffffffffffffffffffffffffffffffffffffffff168173ffffffffffffffffffffffffffffffffffffffff167f8be0079c531659141344cd1fd0a4f28419497f9722a3daafe3b4186f6b6457e060405160405180910390a35050565b828054828255905f5260205f209081019282156119a9579160200282015b828111156119a857823573ffffffffffffffffffffffffffffffffffffffff16825f6101000a81548173ffffffffffffffffffffffffffffffffffffffff021916908373ffffffffffffffffffffffffffffffffffffffff1602179055509160200191906001019061193b565b5b5090506119b69190611b25565b5090565b828054828255905f5260205f209081019282156119f4579160200282015b828111156119f35782358255916020019190600101906119d8565b5b509050611a019190611b25565b5090565b828054828255905f5260205f20908101928215611a7b579160200282015b82811115611a7a578251825f6101000a81548173ffffffffffffffffffffffffffffffffffffffff021916908373ffffffffffffffffffffffffffffffffffffffff16021790555091602001919060010190611a23565b5b509050611a889190611b25565b5090565b828054828255905f5260205f20908101928215611ac6579160200282015b82811115611ac5578251825591602001919060010190611aaa565b5b509050611ad39190611b25565b5090565b6040518060c00160405280606081526020015f73ffffffffffffffffffffffffffffffffffffffff16815260200160608152602001606081526020015f151581526020015f60ff1681525090565b5b80821115611b3c575f815f905550600101611b26565b5090565b5f5ffd5b5f5ffd5b5f5ffd5b5f5ffd5b5f5ffd5b5f5f83601f840112611b6957611b68611b48565b5b8235905067ffffffffffffffff811115611b8657611b85611b4c565b5b602083019150836001820283011115611ba257611ba1611b50565b5b9250929050565b5f8115159050919050565b611bbd81611ba9565b8114611bc7575f5ffd5b50565b5f81359050611bd881611bb4565b92915050565b5f5f5f60408486031215611bf557611bf4611b40565b5b5f84013567ffffffffffffffff811115611c1257611c11611b44565b5b611c1e86828701611b54565b93509350506020611c3186828701611bca565b9150509250925092565b5f5f60208385031215611c5157611c50611b40565b5b5f83013567ffffffffffffffff811115611c6e57611c6d611b44565b5b611c7a85828601611b54565b92509250509250929050565b5f73ffffffffffffffffffffffffffffffffffffffff82169050919050565b5f611caf82611c86565b9050919050565b611cbf81611ca5565b82525050565b5f602082019050611cd85f830184611cb6565b92915050565b5f5f83601f840112611cf357611cf2611b48565b5b8235905067ffffffffffffffff811115611d1057611d0f611b4c565b5b602083019150836020820283011115611d2c57611d2b611b50565b5b9250929050565b5f5f83601f840112611d4857611d47611b48565b5b8235905067ffffffffffffffff811115611d6557611d64611b4c565b5b602083019150836020820283011115611d8157611d80611b50565b5b9250929050565b5f5f5f5f5f5f60608789031215611da257611da1611b40565b5b5f87013567ffffffffffffffff811115611dbf57611dbe611b44565b5b611dcb89828a01611b54565b9650965050602087013567ffffffffffffffff811115611dee57611ded611b44565b5b611dfa89828a01611cde565b9450945050604087013567ffffffffffffffff811115611e1d57611e1c611b44565b5b611e2989828a01611d33565b92509250509295509295509295565b5f819050919050565b611e4a81611e38565b82525050565b5f602082019050611e635f830184611e41565b92915050565b611e7281611ba9565b82525050565b5f602082019050611e8b5f830184611e69565b92915050565b611e9a81611ca5565b8114611ea4575f5ffd5b50565b5f81359050611eb581611e91565b92915050565b5f60ff82169050919050565b611ed081611ebb565b8114611eda575f5ffd5b50565b5f81359050611eeb81611ec7565b92915050565b5f5f5f5f5f5f5f5f60a0898b031215611f0d57611f0c611b40565b5b5f89013567ffffffffffffffff811115611f2a57611f29611b44565b5b611f368b828c01611b54565b98509850506020611f498b828c01611ea7565b965050604089013567ffffffffffffffff811115611f6a57611f69611b44565b5b611f768b828c01611cde565b9550955050606089013567ffffffffffffffff811115611f9957611f98611b44565b5b611fa58b828c01611d33565b93509350506080611fb88b828c01611edd565b9150509295985092959890939650565b5f60208284031215611fdd57611fdc611b40565b5b5f611fea84828501611ea7565b91505092915050565b611ffc81611e38565b8114612006575f5ffd5b50565b5f8135905061201781611ff3565b92915050565b5f6020828403121561203257612031611b40565b5b5f61203f84828501612009565b91505092915050565b5f81519050919050565b5f82825260208201905092915050565b8281835e5f83830152505050565b5f601f19601f8301169050919050565b5f61208a82612048565b6120948185612052565b93506120a4818560208601612062565b6120ad81612070565b840191505092915050565b6120c181611ca5565b82525050565b5f81519050919050565b5f82825260208201905092915050565b5f819050602082019050919050565b5f6120fb83836120b8565b60208301905092915050565b5f602082019050919050565b5f61211d826120c7565b61212781856120d1565b9350612132836120e1565b805f5b8381101561216257815161214988826120f0565b975061215483612107565b925050600181019050612135565b5085935050505092915050565b5f81519050919050565b5f82825260208201905092915050565b5f819050602082019050919050565b6121a181611e38565b82525050565b5f6121b28383612198565b60208301905092915050565b5f602082019050919050565b5f6121d48261216f565b6121de8185612179565b93506121e983612189565b805f5b8381101561221957815161220088826121a7565b975061220b836121be565b9250506001810190506121ec565b5085935050505092915050565b61222f81611ba9565b82525050565b61223e81611ebb565b82525050565b5f60c083015f8301518482035f86015261225e8282612080565b915050602083015161227360208601826120b8565b506040830151848203604086015261228b8282612113565b915050606083015184820360608601526122a582826121ca565b91505060808301516122ba6080860182612226565b5060a08301516122cd60a0860182612235565b508091505092915050565b5f6020820190508181035f8301526122f08184612244565b905092915050565b5f81905092915050565b828183375f83830152505050565b5f61231b83856122f8565b9350612328838584612302565b82840190509392505050565b5f612340828486612310565b91508190509392505050565b5f82825260208201905092915050565b7f4261736b657452656769737472793a206261736b6574206e6f7420666f756e645f82015250565b5f61239060208361234c565b915061239b8261235c565b602082019050919050565b5f6020820190508181035f8301526123bd81612384565b9050919050565b7f4261736b657452656769737472793a2073746174757320756e6368616e6765645f82015250565b5f6123f860208361234c565b9150612403826123c4565b602082019050919050565b5f6020820190508181035f830152612425816123ec565b9050919050565b7f4e487b71000000000000000000000000000000000000000000000000000000005f52602260045260245ffd5b5f600282049050600182168061247057607f821691505b6020821081036124835761248261242c565b5b50919050565b7f4261736b657452656769737472793a206d7573742068617665206174206c65615f8201527f7374206f6e6520746f6b656e0000000000000000000000000000000000000000602082015250565b5f6124e3602c8361234c565b91506124ee82612489565b604082019050919050565b5f6020820190508181035f830152612510816124d7565b9050919050565b7f4261736b657452656769737472793a20746f6b656e7320616e642077656967685f8201527f7473206c656e677468206d69736d617463680000000000000000000000000000602082015250565b5f61257160328361234c565b915061257c82612517565b604082019050919050565b5f6020820190508181035f83015261259e81612565565b9050919050565b7f4e487b71000000000000000000000000000000000000000000000000000000005f52603260045260245ffd5b7f4e487b71000000000000000000000000000000000000000000000000000000005f52601160045260245ffd5b5f61260982611e38565b915061261483611e38565b925082820190508082111561262c5761262b6125d2565b5b92915050565b7f4261736b657452656769737472793a2077656967687473206d7573742073756d5f8201527f20746f2031303025000000000000000000000000000000000000000000000000602082015250565b5f61268c60288361234c565b915061269782612632565b604082019050919050565b5f6020820190508181035f8301526126b981612680565b9050919050565b5f82825260208201905092915050565b5f819050919050565b5f6126e76020840184611ea7565b905092915050565b5f602082019050919050565b5f61270683856126c0565b9350612711826126d0565b805f5b858110156127495761272682846126d9565b61273088826120f0565b975061273b836126ef565b925050600181019050612714565b5085925050509392505050565b5f82825260208201905092915050565b5f5ffd5b82818337505050565b5f61277e8385612756565b93507f07ffffffffffffffffffffffffffffffffffffffffffffffffffffffffffffff8311156127b1576127b0612766565b5b6020830292506127c283858461276a565b82840190509392505050565b5f6040820190508181035f8301526127e78186886126fb565b905081810360208301526127fc818486612773565b905095945050505050565b7f4261736b657452656769737472793a207661756c742063616e6e6f74206265205f8201527f7a65726f00000000000000000000000000000000000000000000000000000000602082015250565b5f61286160248361234c565b915061286c82612807565b604082019050919050565b5f6020820190508181035f83015261288e81612855565b9050919050565b7f4261736b657452656769737472793a206261736b657420616c726561647920655f8201527f7869737473000000000000000000000000000000000000000000000000000000602082015250565b5f6128ef60258361234c565b91506128fa82612895565b604082019050919050565b5f6020820190508181035f83015261291c816128e3565b9050919050565b7f4e487b71000000000000000000000000000000000000000000000000000000005f52604160045260245ffd5b5f819050815f5260205f209050919050565b5f6020601f8301049050919050565b5f82821b905092915050565b5f600883026129ac7fffffffffffffffffffffffffffffffffffffffffffffffffffffffffffffffff82612971565b6129b68683612971565b95508019841693508086168417925050509392505050565b5f819050919050565b5f6129f16129ec6129e784611e38565b6129ce565b611e38565b9050919050565b5f819050919050565b612a0a836129d7565b612a1e612a16826129f8565b84845461297d565b825550505050565b5f5f905090565b612a35612a26565b612a40818484612a01565b505050565b5b81811015612a6357612a585f82612a2d565b600181019050612a46565b5050565b601f821115612aa857612a7981612950565b612a8284612962565b81016020851015612a91578190505b612aa5612a9d85612962565b830182612a45565b50505b505050565b5f82821c905092915050565b5f612ac85f1984600802612aad565b1980831691505092915050565b5f612ae08383612ab9565b9150826002028217905092915050565b612af982612048565b67ffffffffffffffff811115612b1257612b11612923565b5b612b1c8254612459565b612b27828285612a67565b5f60209050601f831160018114612b58575f8415612b46578287015190505b612b508582612ad5565b865550612bb7565b601f198416612b6686612950565b5f5b82811015612b8d57848901518255600182019150602085019450602081019050612b68565b86831015612baa5784890151612ba6601f891682612ab9565b8355505b6001600288020188555050505b505050505050565b5f82905092915050565b612bd38383612bbf565b67ffffffffffffffff811115612bec57612beb612923565b5b612bf68254612459565b612c01828285612a67565b5f601f831160018114612c2e575f8415612c1c578287013590505b612c268582612ad5565b865550612c8d565b601f198416612c3c86612950565b5f5b82811015612c6357848901358255600182019150602085019450602081019050612c3e565b86831015612c805784890135612c7c601f891682612ab9565b8355505b6001600288020188555050505b50505050505050565b7f4261736b657452656769737472793a20696e646578206f7574206f6620626f755f8201527f6e64730000000000000000000000000000000000000000000000000000000000602082015250565b5f612cf060238361234c565b9150612cfb82612c96565b604082019050919050565b5f6020820190508181035f830152612d1d81612ce4565b9050919050565b5f8154612d3081612459565b612d3a81866122f8565b9450600182165f8114612d545760018114612d6957612d9b565b60ff1983168652811515820286019350612d9b565b612d7285612950565b5f5b83811015612d9357815481890152600182019150602081019050612d74565b838801955050505b50505092915050565b5f612daf8284612d24565b91508190509291505056fea2646970667358221220bc89bd063c2bfbcf94a4d11edddecb574bdbdb4b57e2f881032454891e3a15ad64736f6c634300081e0033","linkReferences":{}},"methodIdentifiers":{"acceptOwnership()":"79ba5097","getBasketAtIndex(uint256)":"f722125c","getBasketById(string)":"ffc71d67","getBasketCount()":"81538f15","getVault(string)":"45947bec","isBasketActive(string)":"abda2e3f","owner()":"8da5cb5b","pendingOwner()":"e30c3978","registerBasket(string,address,address[],uint256[],uint8)":"b86839f6","renounceOwnership()":"715018a6","setBasketActive(string,bool)":"391623f2","transferOwnership(address)":"f2fde38b","updateBasketTargets(string,address[],uint256[])":"7fcc2137"},"id":1}