{"abi":[{"type":"constructor","inputs":[{"name":"asset_","type":"address","internalType":"contract IERC20"}],"stateMutability":"nonpayable"},{"type":"function","name":"allowance","inputs":[{"name":"owner","type":"address","internalType":"address"},{"name":"spender","type":"address","internalType":"address"}],"outputs":[{"name":"","type":"uint256","internalType":"uint256"}],"stateMutability":"view"},{"type":"function","name":"approve","inputs":[{"name":"spender","type":"address","internalType":"address"},{"name":"value","type":"uint256","internalType":"uint256"}],"outputs":[{"name":"","type":"bool","internalType":"bool"}],"stateMutability":"nonpayable"},{"type":"function","name":"asset","inputs":[],"outputs":[{"name":"","type":"address","internalType":"address"}],"stateMutability":"view"},{"type":"function","name":"balanceOf","inputs":[{"name":"account","type":"address","internalType":"address"}],"outputs":[{"name":"","type":"uint256","internalType":"uint256"}],"stateMutability":"view"},{"type":"function","name":"convertToAssets","inputs":[{"name":"shares","type":"uint256","internalType":"uint256"}],"outputs":[{"name":"","type":"uint256","internalType":"uint256"}],"stateMutability":"view"},{"type":"function","name":"convertToShares","inputs":[{"name":"assets","type":"uint256","internalType":"uint256"}],"outputs":[{"name":"","type":"uint256","internalType":"uint256"}],"stateMutability":"view"},{"type":"function","name":"decimals","inputs":[],"outputs":[{"name":"","type":"uint8","internalType":"uint8"}],"stateMutability":"view"},{"type":"function","name":"deposit","inputs":[{"name":"assets","type":"uint256","internalType":"uint256"},{"name":"receiver","type":"address","internalType":"address"}],"outputs":[{"name":"","type":"uint256","internalType":"uint256"}],"stateMutability":"nonpayable"},{"type":"function","name":"maxDeposit","inputs":[{"name":"","type":"address","internalType":"address"}],"outputs":[{"name":"","type":"uint256","internalType":"uint256"}],"stateMutability":"view"},{"type":"function","name":"maxMint","inputs":[{"name":"","type":"address","internalType":"address"}],"outputs":[{"name":"","type":"uint256","internalType":"uint256"}],"stateMutability":"view"},{"type":"function","name":"maxRedeem","inputs":[{"name":"owner","type":"address","internalType":"address"}],"outputs":[{"name":"","type":"uint256","internalType":"uint256"}],"stateMutability":"view"},{"type":"function","name":"maxWithdraw","inputs":[{"name":"owner","type":"address","internalType":"address"}],"outputs":[{"name":"","type":"uint256","internalType":"uint256"}],"stateMutability":"view"},{"type":"function","name":"mint","inputs":[{"name":"shares","type":"uint256","internalType":"uint256"},{"name":"receiver","type":"address","internalType":"address"}],"outputs":[{"name":"","type":"uint256","internalType":"uint256"}],"stateMutability":"nonpayable"},{"type":"function","name":"name","inputs":[],"outputs":[{"name":"","type":"string","internalType":"string"}],"stateMutability":"view"},{"type":"function","name":"previewDeposit","inputs":[{"name":"assets","type":"uint256","internalType":"uint256"}],"outputs":[{"name":"","type":"uint256","internalType":"uint256"}],"stateMutability":"view"},{"type":"function","name":"previewMint","inputs":[{"name":"shares","type":"uint256","internalType":"uint256"}],"outputs":[{"name":"","type":"uint256","internalType":"uint256"}],"stateMutability":"view"},{"type":"function","name":"previewRedeem","inputs":[{"name":"shares","type":"uint256","internalType":"uint256"}],"outputs":[{"name":"","type":"uint256","internalType":"uint256"}],"stateMutability":"view"},{"type":"function","name":"previewWithdraw","inputs":[{"name":"assets","type":"uint256","internalType":"uint256"}],"outputs":[{"name":"","type":"uint256","internalType":"uint256"}],"stateMutability":"view"},{"type":"function","name":"redeem","inputs":[{"name":"shares","type":"uint256","internalType":"uint256"},{"name":"receiver","type":"address","internalType":"address"},{"name":"owner","type":"address","internalType":"address"}],"outputs":[{"name":"","type":"uint256","internalType":"uint256"}],"stateMutability":"nonpayable"},{"type":"function","name":"symbol","inputs":[],"outputs":[{"name":"","type":"string","internalType":"string"}],"stateMutability":"view"},{"type":"function","name":"totalAssets","inputs":[],"outputs":[{"name":"","type":"uint256","internalType":"uint256"}],"stateMutability":"view"},{"type":"function","name":"totalSupply","inputs":[],"outputs":[{"name":"","type":"uint256","internalType":"uint256"}],"stateMutability":"view"},{"type":"function","name":"transfer","inputs":[{"name":"to","type":"address","internalType":"address"},{"name":"value","type":"uint256","internalType":"uint256"}],"outputs":[{"name":"","type":"bool","internalType":"bool"}],"stateMutability":"nonpayable"},{"type":"function","name":"transferFrom","inputs":[{"name":"from","type":"address","internalType":"address"},{"name":"to","type":"address","internalType":"address"},{"name":"value","type":"uint256","internalType":"uint256"}],"outputs":[{"name":"","type":"bool","internalType":"bool"}],"stateMutability":"nonpayable"},{"type":"function","name":"withdraw","inputs":[{"name":"assets","type":"uint256","internalType":"uint256"},{"name":"receiver","type":"address","internalType":"address"},{"name":"owner","type":"address","internalType":"address"}],"outputs":[{"name":"","type":"uint256","internalType":"uint256"}],"stateMutability":"nonpayable"},{"type":"event","name":"Approval","inputs":[{"name":"owner","type":"address","indexed":true,"internalType":"address"},{"name":"spender","type":"address","indexed":true,"internalType":"address"},{"name":"value","type":"uint256","indexed":false,"internalType":"uint256"}],"anonymous":false},{"type":"event","name":"Deposit","inputs":[{"name":"sender","type":"address","indexed":true,"internalType":"address"},{"name":"owner","type":"address","indexed":true,"internalType":"address"},{"name":"assets","type":"uint256","indexed":false,"internalType":"uint256"},{"name":"shares","type":"uint256","indexed":false,"internalType":"uint256"}],"anonymous":false},{"type":"event","name":"Transfer","inputs":[{"name":"from","type":"address","indexed":true,"internalType":"address"},{"name":"to","type":"address","indexed":true,"internalType":"address"},{"name":"value","type":"uint256","indexed":false,"internalType":"uint256"}],"anonymous":false},{"type":"event","name":"Withdraw","inputs":[{"name":"sender","type":"address","indexed":true,"internalType":"address"},{"name":"receiver","type":"address","indexed":true,"internalType":"address"},{"name":"owner","type":"address","indexed":true,"internalType":"address"},{"name":"assets","type":"uint256","indexed":false,"internalType":"uint256"},{"name":"shares","type":"uint256","indexed":false,"internalType":"uint256"}],"anonymous":false},{"type":"error","name":"ERC20InsufficientAllowance","inputs":[{"name":"spender","type":"address","internalType":"address"},{"name":"allowance","type":"uint256","internalType":"uint256"},{"name":"needed","type":"uint256","internalType":"uint256"}]},{"type":"error","name":"ERC20InsufficientBalance","inputs":[{"name":"sender","type":"address","internalType":"address"},{"name":"balance","type":"uint256","internalType":"uint256"},{"name":"needed","type":"uint256","internalType":"uint256"}]},{"type":"error","name":"ERC20InvalidApprover","inputs":[{"name":"approver","type":"address","internalType":"address"}]},{"type":"error","name":"ERC20InvalidReceiver","inputs":[{"name":"receiver","type":"address","internalType":"address"}]},{"type":"error","name":"ERC20InvalidSender","inputs":[{"name":"sender","type":"address","internalType":"address"}]},{"type":"error","name":"ERC20InvalidSpender","inputs":[{"name":"spender","type":"address","internalType":"address"}]},{"type":"error","name":"ERC4626ExceededMaxDeposit","inputs":[{"name":"receiver","type":"address","internalType":"address"},{"name":"assets","type":"uint256","internalType":"uint256"},{"name":"max","type":"uint256","internalType":"uint256"}]},{"type":"error","name":"ERC4626ExceededMaxMint","inputs":[{"name":"receiver","type":"address","internalType":"address"},{"name":"shares","type":"uint256","internalType":"uint256"},{"name":"max","type":"uint256","internalType":"uint256"}]},{"type":"error","name":"ERC4626ExceededMaxRedeem","inputs":[{"name":"owner","type":"address","internalType":"address"},{"name":"shares","type":"uint256","internalType":"uint256"},{"name":"max","type":"uint256","internalType":"uint256"}]},{"type":"error","name":"ERC4626ExceededMaxWithdraw","inputs":[{"name":"owner","type":"address","internalType":"address"},{"name":"assets","type":"uint256","internalType":"uint256"},{"name":"max","type":"uint256","internalType":"uint256"}]},{"type":"error","name":"SafeERC20FailedOperation","inputs":[{"name":"token","type":"address","internalType":"address"}]}],"bytecode":{"object":"0x60c060405234801561000f575f5ffd5b50604051612518380380612518833981810160405281019061003191906102a0565b806040518060400160405280600a81526020017f4d6f636b205661756c74000000000000000000000000000000000000000000008152506040518060400160405280600481526020017f4d564c540000000000000000000000000000000000000000000000000000000081525081600390816100ad9190610508565b5080600490816100bd9190610508565b5050505f5f6100d18361012d60201b60201c565b91509150816100e15760126100e3565b805b60ff1660a08160ff16815250508273ffffffffffffffffffffffffffffffffffffffff1660808173ffffffffffffffffffffffffffffffffffffffff1681525050505050506105d7565b5f5f5f61013e6101f960201b60201c565b90505f5f61019c8660405160240160405160208183030381529060405263313ce56760e01b6020820180517bffffffffffffffffffffffffffffffffffffffffffffffffffffffff838183161783525050505061020260201b60201c565b50915091506101b08361022360201b60201c565b8180156101cb575060206101c861022a60201b60201c565b10155b80156101dc575060ff8016815f1c11155b6101e7575f5f6101ed565b6001815f1c5b94509450505050915091565b5f604051905090565b5f5f5f60405f855160208701885afa92505f51915060205190509250925092565b8060405250565b5f3d905090565b5f5ffd5b5f73ffffffffffffffffffffffffffffffffffffffff82169050919050565b5f61025e82610235565b9050919050565b5f61026f82610254565b9050919050565b61027f81610265565b8114610289575f5ffd5b50565b5f8151905061029a81610276565b92915050565b5f602082840312156102b5576102b4610231565b5b5f6102c28482850161028c565b91505092915050565b5f81519050919050565b7f4e487b71000000000000000000000000000000000000000000000000000000005f52604160045260245ffd5b7f4e487b71000000000000000000000000000000000000000000000000000000005f52602260045260245ffd5b5f600282049050600182168061034657607f821691505b60208210810361035957610358610302565b5b50919050565b5f819050815f5260205f209050919050565b5f6020601f8301049050919050565b5f82821b905092915050565b5f600883026103bb7fffffffffffffffffffffffffffffffffffffffffffffffffffffffffffffffff82610380565b6103c58683610380565b95508019841693508086168417925050509392505050565b5f819050919050565b5f819050919050565b5f6104096104046103ff846103dd565b6103e6565b6103dd565b9050919050565b5f819050919050565b610422836103ef565b61043661042e82610410565b84845461038c565b825550505050565b5f5f905090565b61044d61043e565b610458818484610419565b505050565b5b8181101561047b576104705f82610445565b60018101905061045e565b5050565b601f8211156104c0576104918161035f565b61049a84610371565b810160208510156104a9578190505b6104bd6104b585610371565b83018261045d565b50505b505050565b5f82821c905092915050565b5f6104e05f19846008026104c5565b1980831691505092915050565b5f6104f883836104d1565b9150826002028217905092915050565b610511826102cb565b67ffffffffffffffff81111561052a576105296102d5565b5b610534825461032f565b61053f82828561047f565b5f60209050601f831160018114610570575f841561055e578287015190505b61056885826104ed565b8655506105cf565b601f19841661057e8661035f565b5f5b828110156105a557848901518255600182019150602085019450602081019050610580565b868310156105c257848901516105be601f8916826104d1565b8355505b6001600288020188555050505b505050505050565b60805160a051611f206105f85f395f61075701525f6107880152611f205ff3fe608060405234801561000f575f5ffd5b5060043610610171575f3560e01c806370a08231116100dc578063ba08765211610095578063ce96cb771161006f578063ce96cb77146104f9578063d905777e14610529578063dd62ed3e14610559578063ef8b30f71461058957610171565b8063ba08765214610469578063c63d75b614610499578063c6e6f592146104c957610171565b806370a082311461035b57806394bf804d1461038b57806395d89b41146103bb578063a9059cbb146103d9578063b3d7f6b914610409578063b460af941461043957610171565b806323b872dd1161012e57806323b872dd1461025f578063313ce5671461028f57806338d52e0f146102ad578063402d267d146102cb5780634cdad506146102fb5780636e553f651461032b57610171565b806301e1d1141461017557806306fdde031461019357806307a2d13a146101b1578063095ea7b3146101e15780630a28a4771461021157806318160ddd14610241575b5f5ffd5b61017d6105b9565b60405161018a91906117eb565b60405180910390f35b61019b61063e565b6040516101a89190611874565b60405180910390f35b6101cb60048036038101906101c691906118c2565b6106ce565b6040516101d891906117eb565b60405180910390f35b6101fb60048036038101906101f69190611947565b6106e0565b604051610208919061199f565b60405180910390f35b61022b600480360381019061022691906118c2565b610702565b60405161023891906117eb565b60405180910390f35b610249610715565b60405161025691906117eb565b60405180910390f35b610279600480360381019061027491906119b8565b61071e565b604051610286919061199f565b60405180910390f35b61029761074c565b6040516102a49190611a23565b60405180910390f35b6102b5610785565b6040516102c29190611a4b565b60405180910390f35b6102e560048036038101906102e09190611a64565b6107ac565b6040516102f291906117eb565b60405180910390f35b610315600480360381019061031091906118c2565b6107d5565b60405161032291906117eb565b60405180910390f35b61034560048036038101906103409190611a8f565b6107e7565b60405161035291906117eb565b60405180910390f35b61037560048036038101906103709190611a64565b610867565b60405161038291906117eb565b60405180910390f35b6103a560048036038101906103a09190611a8f565b6108ac565b6040516103b291906117eb565b60405180910390f35b6103c361092c565b6040516103d09190611874565b60405180910390f35b6103f360048036038101906103ee9190611947565b6109bc565b604051610400919061199f565b60405180910390f35b610423600480360381019061041e91906118c2565b6109de565b60405161043091906117eb565b60405180910390f35b610453600480360381019061044e9190611acd565b6109f1565b60405161046091906117eb565b60405180910390f35b610483600480360381019061047e9190611acd565b610a73565b60405161049091906117eb565b60405180910390f35b6104b360048036038101906104ae9190611a64565b610af5565b6040516104c091906117eb565b60405180910390f35b6104e360048036038101906104de91906118c2565b610b1e565b6040516104f091906117eb565b60405180910390f35b610513600480360381019061050e9190611a64565b610b30565b60405161052091906117eb565b60405180910390f35b610543600480360381019061053e9190611a64565b610b49565b60405161055091906117eb565b60405180910390f35b610573600480360381019061056e9190611b1d565b610b5a565b60405161058091906117eb565b60405180910390f35b6105a3600480360381019061059e91906118c2565b610bdc565b6040516105b091906117eb565b60405180910390f35b5f6105c2610785565b73ffffffffffffffffffffffffffffffffffffffff166370a08231306040518263ffffffff1660e01b81526004016105fa9190611a4b565b602060405180830381865afa158015610615573d5f5f3e3d5ffd5b505050506040513d601f19601f820116820180604052508101906106399190611b6f565b905090565b60606003805461064d90611bc7565b80601f016020809104026020016040519081016040528092919081815260200182805461067990611bc7565b80156106c45780601f1061069b576101008083540402835291602001916106c4565b820191905f5260205f20905b8154815290600101906020018083116106a757829003601f168201915b5050505050905090565b5f6106d9825f610bee565b9050919050565b5f5f6106ea610c46565b90506106f7818585610c4d565b600191505092915050565b5f61070e826001610c5f565b9050919050565b5f600254905090565b5f5f610728610c46565b9050610735858285610cb7565b610740858585610d4a565b60019150509392505050565b5f610755610e3a565b7f00000000000000000000000000000000000000000000000000000000000000006107809190611c24565b905090565b5f7f0000000000000000000000000000000000000000000000000000000000000000905090565b5f7fffffffffffffffffffffffffffffffffffffffffffffffffffffffffffffffff9050919050565b5f6107e0825f610bee565b9050919050565b5f5f6107f2836107ac565b90508084111561083d578284826040517f79012fb200000000000000000000000000000000000000000000000000000000815260040161083493929190611c58565b60405180910390fd5b5f61084785610bdc565b905061085c610854610c46565b858784610e41565b809250505092915050565b5f5f5f8373ffffffffffffffffffffffffffffffffffffffff1673ffffffffffffffffffffffffffffffffffffffff1681526020019081526020015f20549050919050565b5f5f6108b783610af5565b905080841115610902578284826040517f284ff6670000000000000000000000000000000000000000000000000000000081526004016108f993929190611c58565b60405180910390fd5b5f61090c856109de565b9050610921610919610c46565b858388610e41565b809250505092915050565b60606004805461093b90611bc7565b80601f016020809104026020016040519081016040528092919081815260200182805461096790611bc7565b80156109b25780601f10610989576101008083540402835291602001916109b2565b820191905f5260205f20905b81548152906001019060200180831161099557829003601f168201915b5050505050905090565b5f5f6109c6610c46565b90506109d3818585610d4a565b600191505092915050565b5f6109ea826001610bee565b9050919050565b5f5f6109fc83610b30565b905080851115610a47578285826040517ffe9cceec000000000000000000000000000000000000000000000000000000008152600401610a3e93929190611c58565b60405180910390fd5b5f610a5186610702565b9050610a67610a5e610c46565b86868985610ec2565b80925050509392505050565b5f5f610a7e83610b49565b905080851115610ac9578285826040517fb94abeec000000000000000000000000000000000000000000000000000000008152600401610ac093929190611c58565b60405180910390fd5b5f610ad3866107d5565b9050610ae9610ae0610c46565b8686848a610ec2565b80925050509392505050565b5f7fffffffffffffffffffffffffffffffffffffffffffffffffffffffffffffffff9050919050565b5f610b29825f610c5f565b9050919050565b5f610b42610b3d83610b49565b6107d5565b9050919050565b5f610b5382610867565b9050919050565b5f60015f8473ffffffffffffffffffffffffffffffffffffffff1673ffffffffffffffffffffffffffffffffffffffff1681526020019081526020015f205f8373ffffffffffffffffffffffffffffffffffffffff1673ffffffffffffffffffffffffffffffffffffffff1681526020019081526020015f2054905092915050565b5f610be7825f610c5f565b9050919050565b5f610c3e6001610bfc6105b9565b610c069190611c8d565b610c0e610e3a565b600a610c1a9190611def565b610c22610715565b610c2c9190611c8d565b8486610f9a909392919063ffffffff16565b905092915050565b5f33905090565b610c5a8383836001610fe7565b505050565b5f610caf610c6b610e3a565b600a610c779190611def565b610c7f610715565b610c899190611c8d565b6001610c936105b9565b610c9d9190611c8d565b8486610f9a909392919063ffffffff16565b905092915050565b5f610cc28484610b5a565b90507fffffffffffffffffffffffffffffffffffffffffffffffffffffffffffffffff811015610d445781811015610d35578281836040517ffb8f41b2000000000000000000000000000000000000000000000000000000008152600401610d2c93929190611c58565b60405180910390fd5b610d4384848484035f610fe7565b5b50505050565b5f73ffffffffffffffffffffffffffffffffffffffff168373ffffffffffffffffffffffffffffffffffffffff1603610dba575f6040517f96c6fd1e000000000000000000000000000000000000000000000000000000008152600401610db19190611a4b565b60405180910390fd5b5f73ffffffffffffffffffffffffffffffffffffffff168273ffffffffffffffffffffffffffffffffffffffff1603610e2a575f6040517fec442f05000000000000000000000000000000000000000000000000000000008152600401610e219190611a4b565b60405180910390fd5b610e358383836111b6565b505050565b5f5f905090565b610e4b84836113cf565b610e5583826113e6565b8273ffffffffffffffffffffffffffffffffffffffff168473ffffffffffffffffffffffffffffffffffffffff167fdcbc1c05240f31ff3ad067ef1ee35ce4997762752e3a095284754544f4c709d78484604051610eb4929190611e39565b60405180910390a350505050565b8273ffffffffffffffffffffffffffffffffffffffff168573ffffffffffffffffffffffffffffffffffffffff1614610f0157610f00838683610cb7565b5b610f0b8382611465565b610f1584836114e4565b8273ffffffffffffffffffffffffffffffffffffffff168473ffffffffffffffffffffffffffffffffffffffff168673ffffffffffffffffffffffffffffffffffffffff167ffbde797d201c681b91056529119e0b02407c7bb96a4a2c75c01fc9667232c8db8585604051610f8b929190611e39565b60405180910390a45050505050565b5f610fc8610fa7836114fa565b8015610fc357505f8480610fbe57610fbd611e60565b5b868809115b611527565b610fd3868686611532565b610fdd9190611c8d565b9050949350505050565b5f73ffffffffffffffffffffffffffffffffffffffff168473ffffffffffffffffffffffffffffffffffffffff1603611057575f6040517fe602df0500000000000000000000000000000000000000000000000000000000815260040161104e9190611a4b565b60405180910390fd5b5f73ffffffffffffffffffffffffffffffffffffffff168373ffffffffffffffffffffffffffffffffffffffff16036110c7575f6040517f94280d620000000000000000000000000000000000000000000000000000000081526004016110be9190611a4b565b60405180910390fd5b8160015f8673ffffffffffffffffffffffffffffffffffffffff1673ffffffffffffffffffffffffffffffffffffffff1681526020019081526020015f205f8573ffffffffffffffffffffffffffffffffffffffff1673ffffffffffffffffffffffffffffffffffffffff1681526020019081526020015f208190555080156111b0578273ffffffffffffffffffffffffffffffffffffffff168473ffffffffffffffffffffffffffffffffffffffff167f8c5be1e5ebec7d5bd14f71427d1e84f3dd0314c0f7b2291e5b200ac8c7c3b925846040516111a791906117eb565b60405180910390a35b50505050565b5f73ffffffffffffffffffffffffffffffffffffffff168373ffffffffffffffffffffffffffffffffffffffff1603611206578060025f8282546111fa9190611c8d565b925050819055506112d4565b5f5f5f8573ffffffffffffffffffffffffffffffffffffffff1673ffffffffffffffffffffffffffffffffffffffff1681526020019081526020015f205490508181101561128f578381836040517fe450d38c00000000000000000000000000000000000000000000000000000000815260040161128693929190611c58565b60405180910390fd5b8181035f5f8673ffffffffffffffffffffffffffffffffffffffff1673ffffffffffffffffffffffffffffffffffffffff1681526020019081526020015f2081905550505b5f73ffffffffffffffffffffffffffffffffffffffff168273ffffffffffffffffffffffffffffffffffffffff160361131b578060025f8282540392505081905550611365565b805f5f8473ffffffffffffffffffffffffffffffffffffffff1673ffffffffffffffffffffffffffffffffffffffff1681526020019081526020015f205f82825401925050819055505b8173ffffffffffffffffffffffffffffffffffffffff168373ffffffffffffffffffffffffffffffffffffffff167fddf252ad1be2c89b69c2b068fc378daa952ba7f163c4a11628f55a4df523b3ef836040516113c291906117eb565b60405180910390a3505050565b6113e26113da610785565b833084611611565b5050565b5f73ffffffffffffffffffffffffffffffffffffffff168273ffffffffffffffffffffffffffffffffffffffff1603611456575f6040517fec442f0500000000000000000000000000000000000000000000000000000000815260040161144d9190611a4b565b60405180910390fd5b6114615f83836111b6565b5050565b5f73ffffffffffffffffffffffffffffffffffffffff168273ffffffffffffffffffffffffffffffffffffffff16036114d5575f6040517f96c6fd1e0000000000000000000000000000000000000000000000000000000081526004016114cc9190611a4b565b60405180910390fd5b6114e0825f836111b6565b5050565b6114f66114ef610785565b8383611666565b5050565b5f6001600283600381111561151257611511611e8d565b5b61151c9190611eba565b60ff16149050919050565b5f8115159050919050565b5f5f5f61153f86866116b9565b915091505f82036115645783818161155a57611559611e60565b5b049250505061160a565b8184116115835761158261157d5f8614601260116116d6565b6116ef565b5b5f8486880990508181118303925080820391505f855f038616905080860495508083049250600181825f0304019050808402831792505f600287600302189050808702600203810290508087026002038102905080870260020381029050808702600203810290508087026002038102905080870260020381029050808402955050505050505b9392505050565b61161f848484846001611700565b61166057836040517f5274afe70000000000000000000000000000000000000000000000000000000081526004016116579190611a4b565b60405180910390fd5b50505050565b6116738383836001611771565b6116b457826040517f5274afe70000000000000000000000000000000000000000000000000000000081526004016116ab9190611a4b565b60405180910390fd5b505050565b5f5f5f198385098385029150818110828203039250509250929050565b5f6116e084611527565b82841802821890509392505050565b634e487b715f52806020526024601cfd5b5f5f6323b872dd60e01b9050604051815f525f1960601c87166004525f1960601c86166024528460445260205f60645f5f8c5af1925060015f5114831661175e578383151615611752573d5f823e3d81fd5b5f883b113d1516831692505b806040525f606052505095945050505050565b5f5f63a9059cbb60e01b9050604051815f525f1960601c86166004528460245260205f60445f5f8b5af1925060015f511483166117c55783831516156117b9573d5f823e3d81fd5b5f873b113d1516831692505b806040525050949350505050565b5f819050919050565b6117e5816117d3565b82525050565b5f6020820190506117fe5f8301846117dc565b92915050565b5f81519050919050565b5f82825260208201905092915050565b8281835e5f83830152505050565b5f601f19601f8301169050919050565b5f61184682611804565b611850818561180e565b935061186081856020860161181e565b6118698161182c565b840191505092915050565b5f6020820190508181035f83015261188c818461183c565b905092915050565b5f5ffd5b6118a1816117d3565b81146118ab575f5ffd5b50565b5f813590506118bc81611898565b92915050565b5f602082840312156118d7576118d6611894565b5b5f6118e4848285016118ae565b91505092915050565b5f73ffffffffffffffffffffffffffffffffffffffff82169050919050565b5f611916826118ed565b9050919050565b6119268161190c565b8114611930575f5ffd5b50565b5f813590506119418161191d565b92915050565b5f5f6040838503121561195d5761195c611894565b5b5f61196a85828601611933565b925050602061197b858286016118ae565b9150509250929050565b5f8115159050919050565b61199981611985565b82525050565b5f6020820190506119b25f830184611990565b92915050565b5f5f5f606084860312156119cf576119ce611894565b5b5f6119dc86828701611933565b93505060206119ed86828701611933565b92505060406119fe868287016118ae565b9150509250925092565b5f60ff82169050919050565b611a1d81611a08565b82525050565b5f602082019050611a365f830184611a14565b92915050565b611a458161190c565b82525050565b5f602082019050611a5e5f830184611a3c565b92915050565b5f60208284031215611a7957611a78611894565b5b5f611a8684828501611933565b91505092915050565b5f5f60408385031215611aa557611aa4611894565b5b5f611ab2858286016118ae565b9250506020611ac385828601611933565b9150509250929050565b5f5f5f60608486031215611ae457611ae3611894565b5b5f611af1868287016118ae565b9350506020611b0286828701611933565b9250506040611b1386828701611933565b9150509250925092565b5f5f60408385031215611b3357611b32611894565b5b5f611b4085828601611933565b9250506020611b5185828601611933565b9150509250929050565b5f81519050611b6981611898565b92915050565b5f60208284031215611b8457611b83611894565b5b5f611b9184828501611b5b565b91505092915050565b7f4e487b71000000000000000000000000000000000000000000000000000000005f52602260045260245ffd5b5f6002820490506001821680611bde57607f821691505b602082108103611bf157611bf0611b9a565b5b50919050565b7f4e487b71000000000000000000000000000000000000000000000000000000005f52601160045260245ffd5b5f611c2e82611a08565b9150611c3983611a08565b9250828201905060ff811115611c5257611c51611bf7565b5b92915050565b5f606082019050611c6b5f830186611a3c565b611c7860208301856117dc565b611c8560408301846117dc565b949350505050565b5f611c97826117d3565b9150611ca2836117d3565b9250828201905080821115611cba57611cb9611bf7565b5b92915050565b5f8160011c9050919050565b5f5f8291508390505b6001851115611d1557808604811115611cf157611cf0611bf7565b5b6001851615611d005780820291505b8081029050611d0e85611cc0565b9450611cd5565b94509492505050565b5f82611d2d5760019050611de8565b81611d3a575f9050611de8565b8160018114611d505760028114611d5a57611d89565b6001915050611de8565b60ff841115611d6c57611d6b611bf7565b5b8360020a915084821115611d8357611d82611bf7565b5b50611de8565b5060208310610133831016604e8410600b8410161715611dbe5782820a905083811115611db957611db8611bf7565b5b611de8565b611dcb8484846001611ccc565b92509050818404811115611de257611de1611bf7565b5b81810290505b9392505050565b5f611df9826117d3565b9150611e0483611a08565b9250611e317fffffffffffffffffffffffffffffffffffffffffffffffffffffffffffffffff8484611d1e565b905092915050565b5f604082019050611e4c5f8301856117dc565b611e5960208301846117dc565b9392505050565b7f4e487b71000000000000000000000000000000000000000000000000000000005f52601260045260245ffd5b7f4e487b71000000000000000000000000000000000000000000000000000000005f52602160045260245ffd5b5f611ec482611a08565b9150611ecf83611a08565b925082611edf57611ede611e60565b5b82820690509291505056fea264697066735822122026972cc802e186e49b53ec266ce1a91146e0f6c0f990500d34890c561f1af5d464736f6c634300081e0033","linkReferences":{}},"methodIdentifiers":{"allowance(address,address)":"dd62ed3e","approve(address,uint256)":"095ea7b3","asset()":"38d52e0f","balanceOf(address)":"70a08231","convertToAssets(uint256)":"07a2d13a","convertToShares(uint256)":"c6e6f592","decimals()":"313ce567","deposit(uint256,address)":"6e553f65","maxDeposit(address)":"402d267d","maxMint(address)":"c63d75b6","maxRedeem(address)":"d905777e","maxWithdraw(address)":"ce96cb77","mint(uint256,address)":"94bf804d","name()":"06fdde03","previewDeposit(uint256)":"ef8b30f7","previewMint(uint256)":"b3d7f6b9","previewRedeem(uint256)":"4cdad506","previewWithdraw(uint256)":"0a28a477","redeem(uint256,address,address)":"ba087652","symbol()":"95d89b41","totalAssets()":"01e1d114","totalSupply()":"18160ddd","transfer(address,uint256)":"a9059cbb","transferFrom(address,address,uint256)":"23b872dd","withdraw(uint256,address,address)":"b460af94"},"id":72}