{"abi":[{"type":"function","name":"cancelPlan","inputs":[{"name":"planId","type":"uint256","internalType":"uint256"}],"outputs":[],"stateMutability":"nonpayable"},{"type":"function","name":"createPlan","inputs":[{"name":"token","type":"address","internalType":"address"},{"name":"vault","type":"address","internalType":"address"},{"name":"amountPerRun","type":"uint256","internalType":"uint256"},{"name":"monthlyCap","type":"uint256","internalType":"uint256"},{"name":"firstRun","type":"uint64","internalType":"uint64"},{"name":"frequency","type":"uint32","internalType":"uint32"}],"outputs":[{"name":"planId","type":"uint256","internalType":"uint256"}],"stateMutability":"nonpayable"},{"type":"function","name":"execute","inputs":[{"name":"planId","type":"uint256","internalType":"uint256"}],"outputs":[],"stateMutability":"nonpayable"},{"type":"function","name":"nextPlanId","inputs":[],"outputs":[{"name":"","type":"uint256","internalType":"uint256"}],"stateMutability":"view"},{"type":"function","name":"pausePlan","inputs":[{"name":"planId","type":"uint256","internalType":"uint256"}],"outputs":[],"stateMutability":"nonpayable"},{"type":"function","name":"plans","inputs":[{"name":"","type":"uint256","internalType":"uint256"}],"outputs":[{"name":"owner","type":"address","internalType":"address"},{"name":"token","type":"address","internalType":"address"},{"name":"vault","type":"address","internalType":"address"},{"name":"amountPerRun","type":"uint256","internalType":"uint256"},{"name":"monthlyCap","type":"uint256","internalType":"uint256"},{"name":"nextRun","type":"uint64","internalType":"uint64"},{"name":"frequency","type":"uint32","internalType":"uint32"},{"name":"active","type":"bool","internalType":"bool"}],"stateMutability":"view"},{"type":"event","name":"PlanCancelled","inputs":[{"name":"planId","type":"uint256","indexed":true,"internalType":"uint256"},{"name":"owner","type":"address","indexed":true,"internalType":"address"}],"anonymous":false},{"type":"event","name":"PlanCreated","inputs":[{"name":"planId","type":"uint256","indexed":true,"internalType":"uint256"},{"name":"owner","type":"address","indexed":true,"internalType":"address"}],"anonymous":false},{"type":"event","name":"PlanExecuted","inputs":[{"name":"planId","type":"uint256","indexed":true,"internalType":"uint256"},{"name":"owner","type":"address","indexed":true,"internalType":"address"},{"name":"amount","type":"uint256","indexed":false,"internalType":"uint256"}],"anonymous":false},{"type":"event","name":"PlanPaused","inputs":[{"name":"planId","type":"uint256","indexed":true,"internalType":"uint256"},{"name":"owner","type":"address","indexed":true,"internalType":"address"}],"anonymous":false}],"bytecode":{"object":"0x6080604052348015600e575f5ffd5b5061181f8061001c5f395ff3fe608060405234801561000f575f5ffd5b5060043610610060575f3560e01c806314f665b9146100645780635f8d26b21461009457806380d6664c146100b257806383589fde146100ce578063b1620616146100ea578063fe0d94c114610121575b5f5ffd5b61007e60048036038101906100799190610ffc565b61013d565b60405161008b9190611094565b60405180910390f35b61009c61054b565b6040516100a99190611094565b60405180910390f35b6100cc60048036038101906100c791906110ad565b610550565b005b6100e860048036038101906100e391906110ad565b61075b565b005b61010460048036038101906100ff91906110ad565b610966565b60405161011898979695949392919061111f565b60405180910390f35b61013b600480360381019061013691906110ad565b610a37565b005b5f5f73ffffffffffffffffffffffffffffffffffffffff168773ffffffffffffffffffffffffffffffffffffffff16036101ac576040517f08c379a00000000000000000000000000000000000000000000000000000000081526004016101a3906111f5565b60405180910390fd5b5f73ffffffffffffffffffffffffffffffffffffffff168673ffffffffffffffffffffffffffffffffffffffff160361021a576040517f08c379a00000000000000000000000000000000000000000000000000000000081526004016102119061125d565b60405180910390fd5b5f851161025c576040517f08c379a0000000000000000000000000000000000000000000000000000000008152600401610253906112c5565b60405180910390fd5b8484101561029f576040517f08c379a00000000000000000000000000000000000000000000000000000000081526004016102969061132d565b60405180910390fd5b5f8263ffffffff16116102e7576040517f08c379a00000000000000000000000000000000000000000000000000000000081526004016102de90611395565b60405180910390fd5b5f5490505f5f8154809291906102fc906113e0565b91905055506040518061010001604052803373ffffffffffffffffffffffffffffffffffffffff1681526020018873ffffffffffffffffffffffffffffffffffffffff1681526020018773ffffffffffffffffffffffffffffffffffffffff1681526020018681526020018581526020018467ffffffffffffffff1681526020018363ffffffff1681526020016001151581525060015f8381526020019081526020015f205f820151815f015f6101000a81548173ffffffffffffffffffffffffffffffffffffffff021916908373ffffffffffffffffffffffffffffffffffffffff1602179055506020820151816001015f6101000a81548173ffffffffffffffffffffffffffffffffffffffff021916908373ffffffffffffffffffffffffffffffffffffffff1602179055506040820151816002015f6101000a81548173ffffffffffffffffffffffffffffffffffffffff021916908373ffffffffffffffffffffffffffffffffffffffff160217905550606082015181600301556080820151816004015560a0820151816005015f6101000a81548167ffffffffffffffff021916908367ffffffffffffffff16021790555060c08201518160050160086101000a81548163ffffffff021916908363ffffffff16021790555060e082015181600501600c6101000a81548160ff0219169083151502179055509050503373ffffffffffffffffffffffffffffffffffffffff16817f6b67a01eb500680a90226d64ad9239c6dc9c95b64ea6a8d9a3b5b94197b4658560405160405180910390a39695505050505050565b5f5481565b5f60015f8381526020019081526020015f2090505f73ffffffffffffffffffffffffffffffffffffffff16815f015f9054906101000a900473ffffffffffffffffffffffffffffffffffffffff1673ffffffffffffffffffffffffffffffffffffffff16036105f4576040517f08c379a00000000000000000000000000000000000000000000000000000000081526004016105eb90611471565b60405180910390fd5b805f015f9054906101000a900473ffffffffffffffffffffffffffffffffffffffff1673ffffffffffffffffffffffffffffffffffffffff163373ffffffffffffffffffffffffffffffffffffffff1614610684576040517f08c379a000000000000000000000000000000000000000000000000000000000815260040161067b906114d9565b60405180910390fd5b80600501600c9054906101000a900460ff166106d5576040517f08c379a00000000000000000000000000000000000000000000000000000000081526004016106cc90611541565b60405180910390fd5b5f81600501600c6101000a81548160ff021916908315150217905550805f015f9054906101000a900473ffffffffffffffffffffffffffffffffffffffff1673ffffffffffffffffffffffffffffffffffffffff16827fe0aa0ffd79da4113dcca5de86031659c1d04509346ca018ac5deaabc2e3897c260405160405180910390a35050565b5f60015f8381526020019081526020015f2090505f73ffffffffffffffffffffffffffffffffffffffff16815f015f9054906101000a900473ffffffffffffffffffffffffffffffffffffffff1673ffffffffffffffffffffffffffffffffffffffff16036107ff576040517f08c379a00000000000000000000000000000000000000000000000000000000081526004016107f690611471565b60405180910390fd5b805f015f9054906101000a900473ffffffffffffffffffffffffffffffffffffffff1673ffffffffffffffffffffffffffffffffffffffff163373ffffffffffffffffffffffffffffffffffffffff161461088f576040517f08c379a0000000000000000000000000000000000000000000000000000000008152600401610886906114d9565b60405180910390fd5b80600501600c9054906101000a900460ff166108e0576040517f08c379a00000000000000000000000000000000000000000000000000000000081526004016108d790611541565b60405180910390fd5b5f81600501600c6101000a81548160ff021916908315150217905550805f015f9054906101000a900473ffffffffffffffffffffffffffffffffffffffff1673ffffffffffffffffffffffffffffffffffffffff16827fb57259647c25106a2bc000e6d0cc8975572a05f023d85e55ad64474e023d7de560405160405180910390a35050565b6001602052805f5260405f205f91509050805f015f9054906101000a900473ffffffffffffffffffffffffffffffffffffffff1690806001015f9054906101000a900473ffffffffffffffffffffffffffffffffffffffff1690806002015f9054906101000a900473ffffffffffffffffffffffffffffffffffffffff1690806003015490806004015490806005015f9054906101000a900467ffffffffffffffff16908060050160089054906101000a900463ffffffff169080600501600c9054906101000a900460ff16905088565b5f60015f8381526020019081526020015f2090505f73ffffffffffffffffffffffffffffffffffffffff16815f015f9054906101000a900473ffffffffffffffffffffffffffffffffffffffff1673ffffffffffffffffffffffffffffffffffffffff1603610adb576040517f08c379a0000000000000000000000000000000000000000000000000000000008152600401610ad290611471565b60405180910390fd5b80600501600c9054906101000a900460ff16610b2c576040517f08c379a0000000000000000000000000000000000000000000000000000000008152600401610b23906115a9565b60405180910390fd5b806005015f9054906101000a900467ffffffffffffffff1667ffffffffffffffff16421015610b90576040517f08c379a0000000000000000000000000000000000000000000000000000000008152600401610b8790611611565b60405180910390fd5b806004015481600301541115610bdb576040517f08c379a0000000000000000000000000000000000000000000000000000000008152600401610bd290611679565b60405180910390fd5b806001015f9054906101000a900473ffffffffffffffffffffffffffffffffffffffff1673ffffffffffffffffffffffffffffffffffffffff166323b872dd825f015f9054906101000a900473ffffffffffffffffffffffffffffffffffffffff163084600301546040518463ffffffff1660e01b8152600401610c6193929190611697565b6020604051808303815f875af1158015610c7d573d5f5f3e3d5ffd5b505050506040513d601f19601f82011682018060405250810190610ca191906116f6565b50806001015f9054906101000a900473ffffffffffffffffffffffffffffffffffffffff1673ffffffffffffffffffffffffffffffffffffffff1663095ea7b3826002015f9054906101000a900473ffffffffffffffffffffffffffffffffffffffff1683600301546040518363ffffffff1660e01b8152600401610d27929190611721565b6020604051808303815f875af1158015610d43573d5f5f3e3d5ffd5b505050506040513d601f19601f82011682018060405250810190610d6791906116f6565b50806002015f9054906101000a900473ffffffffffffffffffffffffffffffffffffffff1673ffffffffffffffffffffffffffffffffffffffff16636e553f658260030154835f015f9054906101000a900473ffffffffffffffffffffffffffffffffffffffff166040518363ffffffff1660e01b8152600401610dec929190611748565b6020604051808303815f875af1158015610e08573d5f5f3e3d5ffd5b505050506040513d601f19601f82011682018060405250810190610e2c9190611783565b508060050160089054906101000a900463ffffffff1663ffffffff1642610e5391906117ae565b816005015f6101000a81548167ffffffffffffffff021916908367ffffffffffffffff160217905550805f015f9054906101000a900473ffffffffffffffffffffffffffffffffffffffff1673ffffffffffffffffffffffffffffffffffffffff16827f45459b564f95bd7b130b9f63294e652c40d23fd67d26360dff8f6d8cf55ca3238360030154604051610ee99190611094565b60405180910390a35050565b5f5ffd5b5f73ffffffffffffffffffffffffffffffffffffffff82169050919050565b5f610f2282610ef9565b9050919050565b610f3281610f18565b8114610f3c575f5ffd5b50565b5f81359050610f4d81610f29565b92915050565b5f819050919050565b610f6581610f53565b8114610f6f575f5ffd5b50565b5f81359050610f8081610f5c565b92915050565b5f67ffffffffffffffff82169050919050565b610fa281610f86565b8114610fac575f5ffd5b50565b5f81359050610fbd81610f99565b92915050565b5f63ffffffff82169050919050565b610fdb81610fc3565b8114610fe5575f5ffd5b50565b5f81359050610ff681610fd2565b92915050565b5f5f5f5f5f5f60c0878903121561101657611015610ef5565b5b5f61102389828a01610f3f565b965050602061103489828a01610f3f565b955050604061104589828a01610f72565b945050606061105689828a01610f72565b935050608061106789828a01610faf565b92505060a061107889828a01610fe8565b9150509295509295509295565b61108e81610f53565b82525050565b5f6020820190506110a75f830184611085565b92915050565b5f602082840312156110c2576110c1610ef5565b5b5f6110cf84828501610f72565b91505092915050565b6110e181610f18565b82525050565b6110f081610f86565b82525050565b6110ff81610fc3565b82525050565b5f8115159050919050565b61111981611105565b82525050565b5f610100820190506111335f83018b6110d8565b611140602083018a6110d8565b61114d60408301896110d8565b61115a6060830188611085565b6111676080830187611085565b61117460a08301866110e7565b61118160c08301856110f6565b61118e60e0830184611110565b9998505050505050505050565b5f82825260208201905092915050565b7f746f6b656e207a65726f000000000000000000000000000000000000000000005f82015250565b5f6111df600a8361119b565b91506111ea826111ab565b602082019050919050565b5f6020820190508181035f83015261120c816111d3565b9050919050565b7f7661756c74207a65726f000000000000000000000000000000000000000000005f82015250565b5f611247600a8361119b565b915061125282611213565b602082019050919050565b5f6020820190508181035f8301526112748161123b565b9050919050565b7f616d6f756e7450657252756e207a65726f0000000000000000000000000000005f82015250565b5f6112af60118361119b565b91506112ba8261127b565b602082019050919050565b5f6020820190508181035f8301526112dc816112a3565b9050919050565b7f636170203c20616d6f756e7400000000000000000000000000000000000000005f82015250565b5f611317600c8361119b565b9150611322826112e3565b602082019050919050565b5f6020820190508181035f8301526113448161130b565b9050919050565b7f6672657175656e6379207a65726f0000000000000000000000000000000000005f82015250565b5f61137f600e8361119b565b915061138a8261134b565b602082019050919050565b5f6020820190508181035f8301526113ac81611373565b9050919050565b7f4e487b71000000000000000000000000000000000000000000000000000000005f52601160045260245ffd5b5f6113ea82610f53565b91507fffffffffffffffffffffffffffffffffffffffffffffffffffffffffffffffff820361141c5761141b6113b3565b5b600182019050919050565b7f706c616e206e6f7420666f756e640000000000000000000000000000000000005f82015250565b5f61145b600e8361119b565b915061146682611427565b602082019050919050565b5f6020820190508181035f8301526114888161144f565b9050919050565b7f6e6f74206f776e657200000000000000000000000000000000000000000000005f82015250565b5f6114c360098361119b565b91506114ce8261148f565b602082019050919050565b5f6020820190508181035f8301526114f0816114b7565b9050919050565b7f616c726561647920696e616374697665000000000000000000000000000000005f82015250565b5f61152b60108361119b565b9150611536826114f7565b602082019050919050565b5f6020820190508181035f8301526115588161151f565b9050919050565b7f696e6163746976650000000000000000000000000000000000000000000000005f82015250565b5f61159360088361119b565b915061159e8261155f565b602082019050919050565b5f6020820190508181035f8301526115c081611587565b9050919050565b7f6e6f7420647565000000000000000000000000000000000000000000000000005f82015250565b5f6115fb60078361119b565b9150611606826115c7565b602082019050919050565b5f6020820190508181035f830152611628816115ef565b9050919050565b7f6f766572206361700000000000000000000000000000000000000000000000005f82015250565b5f61166360088361119b565b915061166e8261162f565b602082019050919050565b5f6020820190508181035f83015261169081611657565b9050919050565b5f6060820190506116aa5f8301866110d8565b6116b760208301856110d8565b6116c46040830184611085565b949350505050565b6116d581611105565b81146116df575f5ffd5b50565b5f815190506116f0816116cc565b92915050565b5f6020828403121561170b5761170a610ef5565b5b5f611718848285016116e2565b91505092915050565b5f6040820190506117345f8301856110d8565b6117416020830184611085565b9392505050565b5f60408201905061175b5f830185611085565b61176860208301846110d8565b9392505050565b5f8151905061177d81610f5c565b92915050565b5f6020828403121561179857611797610ef5565b5b5f6117a58482850161176f565b91505092915050565b5f6117b882610f86565b91506117c383610f86565b9250828201905067ffffffffffffffff8111156117e3576117e26113b3565b5b9291505056fea2646970667358221220d3a5002639ca98bf9fd293961bf6f59e18968b61a6e20e94743e10fc1ed5044f64736f6c634300081e0033","linkReferences":{}},"methodIdentifiers":{"cancelPlan(uint256)":"80d6664c","createPlan(address,address,uint256,uint256,uint64,uint32)":"14f665b9","execute(uint256)":"fe0d94c1","nextPlanId()":"5f8d26b2","pausePlan(uint256)":"83589fde","plans(uint256)":"b1620616"},"id":70}